:1000000000800020BD0100000D360000C535000055
:10001000C5350000C5350000C5350000C5350000F8
:10002000C5350000C5350000C53500000D3600009F
:100030000D360000C5350000C5330000C93400008E
:100040000D3600000D3600000D3600000D360000A4
:100050000D3600000D3600000D3600000D36000094
:100060000D3600000D3600000D3600000D36000084
:100070000D3600000D3600000D3600000D36000074
:100080000D3600000D3600000D3600000D36000064
:100090000D3600000D3600000D3600000D36000054
:1000A0000D3600000D3600000D3600000D36000044
:1000B0000D3600000D3600000D3600000D36000034
:1000C0000D3600000D3600000D3600000D36000024
:1000D0000D3600000D3600000D3600000D36000014
:1000E0000D3600000D3600000D3600000D36000004
:1000F0000D360000453600000D3600007137000057
:100100000D3600009D3800000D3600000D36000051
:100110000D3600000D3600000D3600000D360000D3
:100120000D3600000D3600000D3600000D360000C3
:100130000D3600000D3600000D3600000D360000B3
:100140000D3600000D3600000D3600000D360000A3
:100150000D3600000D3600000D3600000D36000093
:100160000D360000B52500000D3600000D360000EC
:100170000D3600000D3600000D3600000D36000073
:100180000D3600000D3600000D3600000D36000063
:100190000D3600000D3600000D3600000D36000053
:1001A0000D3600000D3600000D3600000D36000043
:1001B0000D3600000D3600000D360000564B4CF297
:1001C000205210B51A804DF628121A8000BF00BFC9
:1001D00003F020FA514B4FF010621A60504A9A60B7
:1001E000504ADA60504A136813F4807304D14F49BF
:1001F0000B604FF4A85313604D4B1A78110703D5C9
:100200001A7842F008021A704A4B4B492A221A7097
:100210004A4A4B4B8B4204D252F8040F43F8040B6A
:10022000F8E7484B484900228B4202D243F8042B9E
:10023000FAE74649464A002352F8230041F82300D2
:1002400001336F2BF8D1434B434A802103F8011B44
:100250009342FBD1414B3D4A1A60414B8A221A70AE
:10026000A3F5805324225A70A0221A709A7992071B
:10027000FCD59A79D406FCD43A4A937903F00C035E
:10028000082B384BF9D105221A7143225A719A79F9
:100290009006FCD5334A9179324B4906FBD5324A58
:1002A0004FF0817111600521516020221A709A79F6
:1002B00002F00C020C2AFAD12C4B2D4A1A602D4B5D
:1002C0002D4A1A6000225A60072243F8042C2B4A58
:1002D000C3F80C2D62B602F057F8144B1B68DA070E
:1002E00005D5274801F0E8FF264B274A1A60274B1F
:1002F0001B785B0609D5234C234B22689A4204D114
:100300001F4801F0D9FF0023236003F0EFFF03F043
:1003100087F901F00FFFFEE70E2005403080044012
:10032000823F04000100002B10D0034014D0034092
:1003300002D0074000E00740C08DFF1FAC45000021
:100340002087FF1FC08DFF1FA892FF1F0082FF1F85
:100350000000000000E400E05FE400E008ED00E0E1
:1003600000500640004006404480044004800440A1
:10037000C010050014E000E03F190100000020203B
:10038000C636B05D1CE00340A5C3945A00F0074098
:10039000FFFFFFFFFFFFFFFFFFFFFFFFFFFFFFFF6D
:1003A000FFFFFFFFFFFFFFFFFFFFFFFFFFFFFFFF5D
:1003B000FFFFFFFFFFFFFFFFFFFFFFFFFFFFFFFF4D
:1003C000FFFFFFFFFFFFFFFFFFFFFFFFFFFFFFFF3D
:1003D000FFFFFFFFFFFFFFFFFFFFFFFFFFFFFFFF2D
:1003E000FFFFFFFFFFFFFFFFFFFFFFFFFFFFFFFF1D
:1003F000FFFFFFFFFFFFFFFFFFFFFFFFFFFFFFFF0D
:10040000FFFFFFFFFFFFFFFFFFFFFFFFDEF9FFFF23
:1004100010B5054C237833B9044B13B10448AFF33E
:1004200000800123237010BDC08DFF1F000000005D
:10043000B0450000084B10B51BB108490848AFF3A0
:1004400000800848036803B910BD074B002BFBD0A0
:10045000BDE81040184700BF00000000C48DFF1F1A
:10046000B0450000C08DFF1F000000001F4B10B4FE
:100470001A681368506819780478507A137A04421D
:1004800001EA03011AD0937A03F0030309B143F0A0
:10049000040343F008039910013B91720D2B0BD814
:1004A000DFE803F01E0719070A141E1E140A0719B5
:1004B000071ED368013BD36010BC7047937A03F0EA
:1004C00003030029E7D043F00403E4E7D36810BC3A
:1004D000023BD3607047D36810BC0233D3607047CF
:1004E000D36810BC0133D360704700BF648FFF1F17
:1004F0001F4B10B45A681368506819780478507A02
:10050000137A044201EA03011AD0937A03F0030339
:1005100009B143F0040343F008039910013B9172C1
:100520000D2B0BD8DFE803F01E0719070A141E1E57
:10053000140A0719071ED368013BD36010BC70472B
:10054000937A03F003030029E7D043F00403E4E7C0
:10055000D36810BC023BD3607047D36810BC023331
:10056000D3607047D36810BC0133D360704700BFBD
:10057000648FFF1F1F4B10B49A6813685068197876
:100580000478507A137A044201EA03011AD0937A6C
:1005900003F0030309B143F0040343F00803991087
:1005A000013B91720D2B0BD8DFE803F01E071907F2
:1005B0000A141E1E140A0719071ED368013BD360D4
:1005C00010BC7047937A03F003030029E7D043F08F
:1005D0000403E4E7D36810BC023BD3607047D368E0
:1005E00010BC0233D3607047D36810BC0133D360B2
:1005F000704700BF648FFF1F1F4B10B4DA68136889
:10060000506819780478507A137A044201EA030199
:100610001AD0937A03F0030309B143F0040343F0C3
:1006200008039910013B91720D2B0BD8DFE803F002
:100630001E0719070A141E1E140A0719071ED3687D
:10064000013BD36010BC7047937A03F00303002989
:10065000E7D043F00403E4E7D36810BC023BD36067
:100660007047D36810BC0233D3607047D36810BCA6
:100670000133D360704700BF648FFF1F1F4B10B45E
:100680001A691368506819780478507A137A04420A
:1006900001EA03011AD0937A03F0030309B143F08E
:1006A000040343F008039910013B91720D2B0BD802
:1006B000DFE803F01E0719070A141E1E140A0719A3
:1006C000071ED368013BD36010BC7047937A03F0D8
:1006D00003030029E7D043F00403E4E7D36810BC28
:1006E000023BD3607047D36810BC0233D3607047BD
:1006F000D36810BC0133D360704700BF648FFF1F05
:100700001F4B10B45A691368506819780478507AEE
:10071000137A044201EA03011AD0937A03F0030327
:1007200009B143F0040343F008039910013B9172AF
:100730000D2B0BD8DFE803F01E0719070A141E1E45
:10074000140A0719071ED368013BD36010BC704719
:10075000937A03F003030029E7D043F00403E4E7AE
:10076000D36810BC023BD3607047D36810BC02331F
:10077000D3607047D36810BC0133D360704700BFAB
:10078000648FFF1F1F4B10B49A6913685068197863
:100790000478507A137A044201EA03011AD0937A5A
:1007A00003F0030309B143F0040343F00803991075
:1007B000013B91720D2B0BD8DFE803F01E071907E0
:1007C0000A141E1E140A0719071ED368013BD360C2
:1007D00010BC7047937A03F003030029E7D043F07D
:1007E0000403E4E7D36810BC023BD3607047D368CE
:1007F00010BC0233D3607047D36810BC0133D360A0
:10080000704700BF648FFF1F1F4B10B4DA69136875
:10081000506819780478507A137A044201EA030187
:100820001AD0937A03F0030309B143F0040343F0B1
:1008300008039910013B91720D2B0BD8DFE803F0F0
:100840001E0719070A141E1E140A0719071ED3686B
:10085000013BD36010BC7047937A03F00303002977
:10086000E7D043F00403E4E7D36810BC023BD36055
:100870007047D36810BC0233D3607047D36810BC94
:100880000133D360704700BF648FFF1F1F4B10B44C
:100890001A6A1368506819780478507A137A0442F7
:1008A00001EA03011AD0937A03F0030309B143F07C
:1008B000040343F008039910013B91720D2B0BD8F0
:1008C000DFE803F01E0719070A141E1E140A071991
:1008D000071ED368013BD36010BC7047937A03F0C6
:1008E00003030029E7D043F00403E4E7D36810BC16
:1008F000023BD3607047D36810BC0233D3607047AB
:10090000D36810BC0133D360704700BF648FFF1FF2
:100910001F4B10B45A6A1368506819780478507ADB
:10092000137A044201EA03011AD0937A03F0030315
:1009300009B143F0040343F008039910013B91729D
:100940000D2B0BD8DFE803F01E0719070A141E1E33
:10095000140A0719071ED368013BD36010BC704707
:10096000937A03F003030029E7D043F00403E4E79C
:10097000D36810BC023BD3607047D36810BC02330D
:10098000D3607047D36810BC0133D360704700BF99
:10099000648FFF1F1F4B10B49A6A13685068197850
:1009A0000478507A137A044201EA03011AD0937A48
:1009B00003F0030309B143F0040343F00803991063
:1009C000013B91720D2B0BD8DFE803F01E071907CE
:1009D0000A141E1E140A0719071ED368013BD360B0
:1009E00010BC7047937A03F003030029E7D043F06B
:1009F0000403E4E7D36810BC023BD3607047D368BC
:100A000010BC0233D3607047D36810BC0133D3608D
:100A1000704700BF648FFF1F1F4B10B4DA6A136862
:100A2000506819780478507A137A044201EA030175
:100A30001AD0937A03F0030309B143F0040343F09F
:100A400008039910013B91720D2B0BD8DFE803F0DE
:100A50001E0719070A141E1E140A0719071ED36859
:100A6000013BD36010BC7047937A03F00303002965
:100A7000E7D043F00403E4E7D36810BC023BD36043
:100A80007047D36810BC0233D3607047D36810BC82
:100A90000133D360704700BF648FFF1F1F4B10B43A
:100AA0001A6B1368506819780478507A137A0442E4
:100AB00001EA03011AD0937A03F0030309B143F06A
:100AC000040343F008039910013B91720D2B0BD8DE
:100AD000DFE803F01E0719070A141E1E140A07197F
:100AE000071ED368013BD36010BC7047937A03F0B4
:100AF00003030029E7D043F00403E4E7D36810BC04
:100B0000023BD3607047D36810BC0233D360704798
:100B1000D36810BC0133D360704700BF648FFF1FE0
:100B20001F4B10B45A6B1368506819780478507AC8
:100B3000137A044201EA03011AD0937A03F0030303
:100B400009B143F0040343F008039910013B91728B
:100B50000D2B0BD8DFE803F01E0719070A141E1E21
:100B6000140A0719071ED368013BD36010BC7047F5
:100B7000937A03F003030029E7D043F00403E4E78A
:100B8000D36810BC023BD3607047D36810BC0233FB
:100B9000D3607047D36810BC0133D360704700BF87
:100BA000648FFF1F1F4B10B49A6B1368506819783D
:100BB0000478507A137A044201EA03011AD0937A36
:100BC00003F0030309B143F0040343F00803991051
:100BD000013B91720D2B0BD8DFE803F01E071907BC
:100BE0000A141E1E140A0719071ED368013BD3609E
:100BF00010BC7047937A03F003030029E7D043F059
:100C00000403E4E7D36810BC023BD3607047D368A9
:100C100010BC0233D3607047D36810BC0133D3607B
:100C2000704700BF648FFF1F1F4B10B4DA6B13684F
:100C3000506819780478507A137A044201EA030163
:100C40001AD0937A03F0030309B143F0040343F08D
:100C500008039910013B91720D2B0BD8DFE803F0CC
:100C60001E0719070A141E1E140A0719071ED36847
:100C7000013BD36010BC7047937A03F00303002953
:100C8000E7D043F00403E4E7D36810BC023BD36031
:100C90007047D36810BC0233D3607047D36810BC70
:100CA0000133D360704700BF648FFF1F1F4B10B428
:100CB0001A6C1368506819780478507A137A0442D1
:100CC00001EA03011AD0937A03F0030309B143F058
:100CD000040343F008039910013B91720D2B0BD8CC
:100CE000DFE803F01E0719070A141E1E140A07196D
:100CF000071ED368013BD36010BC7047937A03F0A2
:100D000003030029E7D043F00403E4E7D36810BCF1
:100D1000023BD3607047D36810BC0233D360704786
:100D2000D36810BC0133D360704700BF648FFF1FCE
:100D30001F4B10B45A6C1368506819780478507AB5
:100D4000137A044201EA03011AD0937A03F00303F1
:100D500009B143F0040343F008039910013B917279
:100D60000D2B0BD8DFE803F01E0719070A141E1E0F
:100D7000140A0719071ED368013BD36010BC7047E3
:100D8000937A03F003030029E7D043F00403E4E778
:100D9000D36810BC023BD3607047D36810BC0233E9
:100DA000D3607047D36810BC0133D360704700BF75
:100DB000648FFF1F1F4B10B49A6C1368506819782A
:100DC0000478507A137A044201EA03011AD0937A24
:100DD00003F0030309B143F0040343F0080399103F
:100DE000013B91720D2B0BD8DFE803F01E071907AA
:100DF0000A141E1E140A0719071ED368013BD3608C
:100E000010BC7047937A03F003030029E7D043F046
:100E10000403E4E7D36810BC023BD3607047D36897
:100E200010BC0233D3607047D36810BC0133D36069
:100E3000704700BF648FFF1F1F4B10B4DA6C13683C
:100E4000506819780478507A137A044201EA030151
:100E50001AD0937A03F0030309B143F0040343F07B
:100E600008039910013B91720D2B0BD8DFE803F0BA
:100E70001E0719070A141E1E140A0719071ED36835
:100E8000013BD36010BC7047937A03F00303002941
:100E9000E7D043F00403E4E7D36810BC023BD3601F
:100EA0007047D36810BC0233D3607047D36810BC5E
:100EB0000133D360704700BF648FFF1F1F4B10B416
:100EC0001A6D1368506819780478507A137A0442BE
:100ED00001EA03011AD0937A03F0030309B143F046
:100EE000040343F008039910013B91720D2B0BD8BA
:100EF000DFE803F01E0719070A141E1E140A07195B
:100F0000071ED368013BD36010BC7047937A03F08F
:100F100003030029E7D043F00403E4E7D36810BCDF
:100F2000023BD3607047D36810BC0233D360704774
:100F3000D36810BC0133D360704700BF648FFF1FBC
:100F40001F4B10B45A6D1368506819780478507AA2
:100F5000137A044201EA03011AD0937A03F00303DF
:100F600009B143F0040343F008039910013B917267
:100F70000D2B0BD8DFE803F01E0719070A141E1EFD
:100F8000140A0719071ED368013BD36010BC7047D1
:100F9000937A03F003030029E7D043F00403E4E766
:100FA000D36810BC023BD3607047D36810BC0233D7
:100FB000D3607047D36810BC0133D360704700BF63
:100FC000648FFF1F1F4B10B49A6D13685068197817
:100FD0000478507A137A044201EA03011AD0937A12
:100FE00003F0030309B143F0040343F0080399102D
:100FF000013B91720D2B0BD8DFE803F01E07190798
:101000000A141E1E140A0719071ED368013BD36079
:1010100010BC7047937A03F003030029E7D043F034
:101020000403E4E7D36810BC023BD3607047D36885
:1010300010BC0233D3607047D36810BC0133D36057
:10104000704700BF648FFF1F1F4B10B4DA6D136829
:10105000506819780478507A137A044201EA03013F
:101060001AD0937A03F0030309B143F0040343F069
:1010700008039910013B91720D2B0BD8DFE803F0A8
:101080001E0719070A141E1E140A0719071ED36823
:10109000013BD36010BC7047937A03F0030300292F
:1010A000E7D043F00403E4E7D36810BC023BD3600D
:1010B0007047D36810BC0233D3607047D36810BC4C
:1010C0000133D360704700BF648FFF1F1F4B10B404
:1010D0001A6E1368506819780478507A137A0442AB
:1010E00001EA03011AD0937A03F0030309B143F034
:1010F000040343F008039910013B91720D2B0BD8A8
:10110000DFE803F01E0719070A141E1E140A071948
:10111000071ED368013BD36010BC7047937A03F07D
:1011200003030029E7D043F00403E4E7D36810BCCD
:10113000023BD3607047D36810BC0233D360704762
:10114000D36810BC0133D360704700BF648FFF1FAA
:101150001F4B10B45A6E1368506819780478507A8F
:10116000137A044201EA03011AD0937A03F00303CD
:1011700009B143F0040343F008039910013B917255
:101180000D2B0BD8DFE803F01E0719070A141E1EEB
:10119000140A0719071ED368013BD36010BC7047BF
:1011A000937A03F003030029E7D043F00403E4E754
:1011B000D36810BC023BD3607047D36810BC0233C5
:1011C000D3607047D36810BC0133D360704700BF51
:1011D000648FFF1F1F4B10B49A6E13685068197804
:1011E0000478507A137A044201EA03011AD0937A00
:1011F00003F0030309B143F0040343F0080399101B
:10120000013B91720D2B0BD8DFE803F01E07190785
:101210000A141E1E140A0719071ED368013BD36067
:1012200010BC7047937A03F003030029E7D043F022
:101230000403E4E7D36810BC023BD3607047D36873
:1012400010BC0233D3607047D36810BC0133D36045
:10125000704700BF648FFF1F1F4B10B4DA6E136816
:10126000506819780478507A137A044201EA03012D
:101270001AD0937A03F0030309B143F0040343F057
:1012800008039910013B91720D2B0BD8DFE803F096
:101290001E0719070A141E1E140A0719071ED36811
:1012A000013BD36010BC7047937A03F0030300291D
:1012B000E7D043F00403E4E7D36810BC023BD360FB
:1012C0007047D36810BC0233D3607047D36810BC3A
:1012D0000133D360704700BF648FFF1F1F4B10B4F2
:1012E0001A6F1368506819780478507A137A044298
:1012F00001EA03011AD0937A03F0030309B143F022
:10130000040343F008039910013B91720D2B0BD895
:10131000DFE803F01E0719070A141E1E140A071936
:10132000071ED368013BD36010BC7047937A03F06B
:1013300003030029E7D043F00403E4E7D36810BCBB
:10134000023BD3607047D36810BC0233D360704750
:10135000D36810BC0133D360704700BF648FFF1F98
:101360001F4B10B45A6F1368506819780478507A7C
:10137000137A044201EA03011AD0937A03F00303BB
:1013800009B143F0040343F008039910013B917243
:101390000D2B0BD8DFE803F01E0719070A141E1ED9
:1013A000140A0719071ED368013BD36010BC7047AD
:1013B000937A03F003030029E7D043F00403E4E742
:1013C000D36810BC023BD3607047D36810BC0233B3
:1013D000D3607047D36810BC0133D360704700BF3F
:1013E000648FFF1F1F4B10B49A6F136850681978F1
:1013F0000478507A137A044201EA03011AD0937AEE
:1014000003F0030309B143F0040343F00803991008
:10141000013B91720D2B0BD8DFE803F01E07190773
:101420000A141E1E140A0719071ED368013BD36055
:1014300010BC7047937A03F003030029E7D043F010
:101440000403E4E7D36810BC023BD3607047D36861
:1014500010BC0233D3607047D36810BC0133D36033
:10146000704700BF648FFF1F1F4B10B4DA6F136803
:10147000506819780478507A137A044201EA03011B
:101480001AD0937A03F0030309B143F0040343F045
:1014900008039910013B91720D2B0BD8DFE803F084
:1014A0001E0719070A141E1E140A0719071ED368FF
:1014B000013BD36010BC7047937A03F0030300290B
:1014C000E7D043F00403E4E7D36810BC023BD360E9
:1014D0007047D36810BC0233D3607047D36810BC28
:1014E0000133D360704700BF648FFF1F1F4B10B4E0
:1014F000D3F880201368506819780478507A137AEA
:10150000044201EA03011AD0937A03F0030309B1FC
:1015100043F0040343F008039910013B91720D2B33
:101520000BD8DFE803F01E0719070A141E1E140A61
:101530000719071ED368013BD36010BC7047937A2C
:1015400003F003030029E7D043F00403E4E7D36882
:1015500010BC023BD3607047D36810BC0233D36029
:101560007047D36810BC0133D3607047648FFF1F8E
:101570001F4B10B4D3F8842013685068197804788E
:10158000507A137A044201EA03011AD0937A03F0E5
:10159000030309B143F0040343F008039910013B2E
:1015A00091720D2B0BD8DFE803F01E0719070A1400
:1015B0001E1E140A0719071ED368013BD36010BC16
:1015C0007047937A03F003030029E7D043F0040344
:1015D000E4E7D36810BC023BD3607047D36810BC0B
:1015E0000233D3607047D36810BC0133D3607047B7
:1015F000648FFF1FF8B5044615460E4608460221C3
:1016000000F06CFE2846022100F068FE9D4A52F868
:101610003610012301F500702060237252F8352046
:10162000637202F5007700204BF680336760E0605C
:10163000013BFDD191F8003292F8002203F0010342
:10164000D20744BF43F00203DBB2A372212E00F2A3
:101650004983DFE816F03C0333032A032103180310
:101660000F030603FD02F402EB02E202D9028C0230
:1016700083027A02710268025F0256024D0244023E
:101680003B0232022902200217020E020502FC016F
:10169000F301EA01E101D70122007B4B7B49C3F84A
:1016A00084400422212000F08BFD01232374212D8E
:1016B00000F21683DFE815F09C01920188017E019B
:1016C00074016A01600156014C01420138012E018A
:1016D00024011A011001DB00D100C700BD00B300D6
:1016E000A9009F0095008B00810077006D006300CA
:1016F00059004F0045003B0030002200624B634917
:10170000C3F884400422212000F05AFD237C0122EA
:10171000134423742046F8BD5B4B5D49C3F88040F9
:101720000422202000F04CFD237C0122F0E7564BE0
:101730005849DC6704221F2000F042FD237C01226F
:10174000E6E7514B54499C6704221E2000F038FD07
:10175000237C0122DCE74C4B50495C6704221D20AE
:1017600000F02EFD237C0122D2E7474B4C491C6739
:1017700004221C2000F024FD237C0122C8E7424BF8
:101780004849DC6604221B2000F01AFD237C01225C
:10179000BEE73D4B44499C6604221A2000F010FD30
:1017A000237C0122B4E7384B40495C6604221920AF
:1017B00000F006FD237C0122AAE7334B3C491C665E
:1017C0000422182000F0FCFC237C0122A0E72E4B11
:1017D0003849DC650422172000F0F2FC237C01224A
:1017E00096E7294B34499C650422162000F0E8FC5A
:1017F000237C01228CE7244B30495C6504221520B0
:1018000000F0DEFC237C012282E71F4B2C491C6583
:101810000422142000F0D4FC237C012278E71A4B28
:101820002849DC640422132000F0CAFC237C012236
:101830006EE7154B24499C640422122000F0C0FC82
:10184000237C012264E7104B20495C6404221120B0
:1018500000F0B6FC237C01225AE70B4B1C491C64A8
:101860000422102000F0ACFC237C012250E7064B40
:101870001849DC6304220F2000F0A2FC237C012223
:1018800046E700BF28440000648FFF1F7115000069
:10189000ED14000069140000E5130000611300005E
:1018A000DD12000059120000D51100005111000096
:1018B000CD10000049100000C50F0000410F0000CE
:1018C000BD0E0000390E0000B50D0000310D000006
:1018D000AD0C0000290C0000A94BAA499C6304220E
:1018E0000E2000F06DFC237C012211E7A44BA649D9
:1018F0005C6304220D2000F063FC237C012207E7D7
:101900009F4BA2491C6304220C2000F059FC237C4D
:101910000122FDE69A4B9E49DC6204220B2000F076
:101920004FFC237C0122F3E6954B9A499C620422EA
:101930000A2000F045FC237C0122E9E6904B964901
:101940005C620422092000F03BFC237C0122DFE6DC
:101950008B4B92491C620422082000F031FC237C4E
:101960000122D5E6864B8E49DC610422072000F077
:1019700027FC237C0122CBE6814B8A499C6104220F
:10198000062000F01DFC237C0122C1E67C4B864929
:101990005C610422052000F013FC237C0122B7E6E1
:1019A000774B82491C610422104600F009FC237C1D
:1019B0000122ADE6724B7E49DC600422032000F078
:1019C000FFFB237C0122A3E66D4B7A499C60042235
:1019D000022000F0F5FB237C012299E6684B764952
:1019E0005C600422012000F0EBFB237C01228FE6E7
:1019F000634B72491C600422002000F0E1FB237C51
:101A0000012285E65E4B6E49C3F880400422202007
:101A100000F0D6FB012349E6594B6A49DC670422F2
:101A20001F2000F0CDFB012340E6554B66499C6723
:101A300004221E2000F0C4FB012337E6504B63490B
:101A40005C6704221D2000F0BBFB01232EE64C4BFB
:101A50005F491C6704221C2000F0B2FB012325E62D
:101A6000474B5C49DC6604221B2000F0A9FB0123E4
:101A70001CE6434B58499C6604221A2000F0A0FB48
:101A8000012313E63E4B55495C660422192000F001
:101A900097FB01230AE63A4B51491C6604221820A1
:101AA00000F08EFB012301E6354B4E49DC65042234
:101AB000172000F085FB0123F8E5314B4A499C656E
:101AC0000422162000F07CFB0123EFE52C4B474954
:101AD0005C650422152000F073FB0123E6E5284B2A
:101AE00043491C650422142000F06AFB0123DDE554
:101AF000234B4049DC640422132000F061FB0123E6
:101B0000D4E51F4B3C499C640422122000F058FB92
:101B10000123CBE51A4B39495C640422112000F003
:101B20004FFB0123C2E5164B35491C6404221020EB
:101B300000F046FB0123B9E5114B3249DC63042276
:101B40000F2000F03DFB0123B0E50D4B0D499C63D8
:101B500004220E2000F034FB0123A7E5084B0A49BC
:101B60005C6304220D2000F02BFB01239EE5044B57
:101B700006491C6304220C2000F022FB012395E59A
:101B8000648FFF1FA50B0000210B00009D0A0000C1
:101B9000190A000095090000110900008D080000D5
:101BA0000908000085070000010700007D0600000D
:101BB000F905000075050000F10400006D04000047
:101BC000ED14000069140000E5130000611300002B
:101BD000DD12000059120000D51100005111000063
:101BE000CD10000049100000C50F0000410F00009B
:101BF000BD0E0000390E0000B50D0000310D0000D3
:101C0000AD0C0000290C0000374B3849DC6204227F
:101C10000B2000F0D5FA012348E5334B34499C6290
:101C200004220A2000F0CCFA01233FE52E4B314973
:101C30005C620422092000F0C3FA012336E52A4B36
:101C40002D491C620422082000F0BAFA01232DE578
:101C5000254B2A49DC610422072000F0B1FA012358
:101C600024E5214B26499C610422062000F0A8FAB5
:101C700001231BE51C4B23495C610422052000F075
:101C80009FFA012312E5184B1F491C6104221046DC
:101C900000F096FA012309E5134B1C49DC6004228D
:101CA000032000F08DFA012300E50F4B18499C60DA
:101CB0000422022000F084FA0123F7E40A4B1549BC
:101CC0005C600422012000F07BFA0123EEE4064B65
:101CD00011491C600422002000F072FA0123E5E49F
:101CE000002215E50023E1E4648FFF1F190A0000BC
:101CF00095090000110900008D0800000908000086
:101D000085070000010700007D060000F9050000BE
:101D100075050000F10400006D040000F8B5394BB2
:101D200039491A7C394D0024012AC1E9004518D9E6
:101D300072B6D86862B601F0D9FF354B354F364ED2
:101D4000364D374CC3E90001364B002200200021FC
:101D5000C7E90023C6E90023C5E90023C4E900015F
:101D6000F8BD72B61A68586811780478587A1A7AE9
:101D7000044201EA020108D09A7A02F0030209B192
:101D800042F0040242F0080204E09A7A02F00302F0
:101D9000002933D19110013A99720D2AC9D801A1B5
:101DA00051F822F0F51D0000ED1D0000E51D0000BA
:101DB000ED1D0000331D0000DD1D0000F51D0000BD
:101DC000F51D0000DD1D0000331D0000ED1D0000AD
:101DD000E51D0000ED1D0000F51D0000D86802386B
:101DE000D860A7E7D8680230D860A3E7D868013880
:101DF000D8609FE7D8680130D8609BE742F00402C2
:101E0000C8E700BF508FFF1F708EFF1F00005940B2
:101E1000388FFF1F108FFF1F088FFF1F288FFF1F96
:101E2000408FFF1F0000F03FF8B5394D394B3A4C59
:101E30001A7CD5E90001012AC4E9000117D972B65C
:101E4000D86862B601F052FF06460F4602460B46BE
:101E5000C5E90067D4E9000101F0FAFD2F4B304CD1
:101E6000D3E9002302F0D2F8C4E90001F8BD72B64C
:101E70001A68586811780678587A1A7A064201EA80
:101E8000020108D09A7A02F0030209B142F004027A
:101E900042F0080204E09A7A02F00302002933D1EA
:101EA0009110013A99720D2ACAD801A151F822F075
:101EB000011F0000F91E0000F11E0000F91E0000C5
:101EC000411E0000E91E0000011F0000011F00006C
:101ED000E91E0000411E0000F91E0000F11E000076
:101EE000F91E0000011F0000D8680238D860A8E77A
:101EF000D8680230D860A4E7D8680138D860A0E775
:101F0000D8680130D8609CE742F00402C8E700BFFF
:101F1000308FFF1F508FFF1F788EFF1F0088FF1F1D
:101F2000388FFF1F2DE9F043082289B007211D4C8F
:101F30001D481E4E1E4DFFF75DFB0A2209211D485C
:101F4000FFF758FBD4E90089D6E90067CDE9048999
:101F5000D5E90045CDE902670026CDE90045164BDD
:101F6000164A1749079606961648174C00F094F83B
:101F7000164A174B0796D2E90001D4E90045D3E988
:101F80000023CDE90401CDE902230696CDE9004501
:101F9000104B114A1149124800F07EF809B0BDE813
:101FA000F08300BF288FFF1F508FFF1F408FFF1F40
:101FB000108FFF1FDC8DFF1F708EFF1F088FFF1F0C
:101FC000388FFF1FF08DFF1FF88EFF1F208FFF1F20
:101FD000688EFF1F188FFF1F488FFF1F008FFF1F86
:101FE000808EFF1F2DE9F0470C9941631D46A1F13A
:101FF0000103B3FA83F35B09DDE90889144680F82D
:102000007130DDE90A238246C0E90289C0E9042370
:10201000C0E90045806D01F059FE00221C4B01F023
:10202000F5FF06460F4632463B4640464946CAE95A
:10203000064501F0C1FE804689463B463246CAE964
:102040000889DDE90A0101F0E1FFDAF830300646DF
:102050000F46012BCAE90A6717D122462B460020FA
:10206000002101F0F5FC4246CAE906014B4600207A
:10207000002101F0EDFC3246CAE908013B46002090
:10208000002101F0E5FCCAE90A01BDE8F08700BFC4
:1020900000408F40FFFFFFFF2DE9F0430FF288095A
:1020A000D9E9008989B0044600261798E263002721
:1020B0004FF0000E6425A1632364206384F870E070
:1020C000C4E91A89C4E91867A56532463B46DDE9CB
:1020D000100102F0E3F8E8B932463B46DDE91201AF
:1020E00002F0DCF8B0B932463B46DDE9140102F0FB
:1020F000D5F878B9169B0493DDE91423CDE90223C2
:10210000DDE912232046CDE90023DDE91023FFF7A6
:1021100069FFA56D064B1B680793079B20465D1B57
:10212000656409B0BDE8F0830000000000E06F4086
:10213000EC8FFF1F08B5FFF7F1FDFFF775FE01F00B
:1021400085F8FAE7704700BF1C4A02EBC00301297B
:102150005B6811D004291BD052F83000002280F8AF
:10216000802229B1022920D0032922D01A60704789
:102170004FF480721A60704752F830004FF4A27228
:1021800080F880121A601A6822F020021A607047E4
:1021900052F830104FF4A272012081F880021A60C8
:1021A0001A6842F020021A60704740F203121A6067
:1021B00070474FF481721A60704700BF28440000D6
:1021C000212848D8F8B5042A44D8DFE802F0484B63
:1021D0004E0345004FF410262B4B03EBC0030D4676
:1021E0005C68216811F4E06148D0284B284A2949ED
:1021F000C3F89C2104F140422748C3F8A411A2F57A
:102200009221264FC3F8A0017C292548C3F8A87164
:10221000C3F8AC012CD9A2F594237C2B2AD9A2F5C2
:1022200096237C2B28D9A2F598237C2B29D9A2F5BB
:102230009A227C2A27D81B4872B6236823F470237D
:1022400043F08072C4F384011643236040F82150A8
:10225000266062B6F8BD70474FF43026BCE74FF4F5
:102260000026B9E74FF44026B6E74FF42026B3E73F
:102270000D48E1E70D48DFE70D48DDE7FFF764FFB4
:10228000B3E70C48D8E7F8BD284400000082FF1FE0
:10229000D187FF1F7987FF1FA587FF1F4D87FF1F6E
:1022A0002187FF1FE088FF1F0888FF1F4088FF1F4E
:1022B0009088FF1FC088FF1F30B4054B054D064CAA
:1022C000002210211A602A602060196030BC70471B
:1022D00014D0034004D0034000D00340212801D88B
:1022E000FFF732BF704700BF2DE9F843054672B6CD
:1022F000214F224B224A1B683C68126862B6520189
:1023000002D5322B88BF0134A5B3C3F58C331D4EE3
:10231000DFF86890DFF8688003F23F134FF47A72B9
:10232000A6FB031302FB04F404EB131472B6D9F8F2
:1023300000103A68D8F800E062B6C1F58C3303F2B9
:102340003F13A6FB03031EF0806FC4EB13134FF47F
:102350007A7002D0322988BF013200FB0233B3F514
:102360007A7F04D3013D05D004F57A74DEE700F0EE
:102370006DFFDBE7BDE8F883EC8FFF1F18E000E09E
:1023800004ED00E0398EE338F8B52D4B2D49DFF828
:10239000D0E0DFF8D0C02C4E2C4D2D4C2D4A2E4FC6
:1023A0004FF4000018604FF0807018604FF000701C
:1023B00018604FF0806018604FF0006018600020D7
:1023C0000860282348F6FF71CCF80010CEF80030E2
:1023D000336013602B6023603B60B3629362092219
:1023E00045F8242CC4F8D80F05F57F65C7F8D41F2D
:1023F00007F5FF2707F5FA67C6F8F83F2B6006F5E3
:10240000FF26C4F8D42F05F5FD2504F5FF24386018
:1024100006F2F4761148316005F5FF6504F5FD64B8
:102420002B602360026001F05DF81920FFF75CFF6C
:1024300000F028FE40F21310BDE8F840FFF754BF4B
:1024400008E100E00480034014800340248003403E
:102450002C8003401C8003403480034000800B40EC
:102460000C8003400880034030B472B62B4A1378C6
:102470001D0706D52A4B196A002936D0996A00290A
:1024800041D053781C0706D5254B196C00293ED046
:10249000996C002939D09378190705D5204B196E0E
:1024A000002936D0996E89B1D3781B0707D51C4B0C
:1024B000D3F880207AB3D3F8882011213AB162B6DC
:1024C000184B00221A7030BC00F068BE0D21154C6C
:1024D000154D227843F8315003EBC1030830013A1F
:1024E0005860227062B630BC704704220D4C0F4D0C
:1024F000217843F8325003EBC20308304A1E58607B
:10250000227062B6EFE70521E1E70921DFE7082243
:10251000ECE70C22EAE71022E8E700BF38450000AC
:102520000080FF1FC590FF1FC800400088004000CA
:10253000431E032B1DD81B4A400140F0100030B44D
:10254000104472B6184CE25C032A1BD8DFE802F094
:102550000212151703220D88E25410F0080F14BF61
:10256000C823882343EA054308310360416062B60B
:1025700030BC704708300222EDE70522EBE7083057
:102580000422E8E7094A52F8230038B1084A52F811
:102590002300416042F8231062B6E9E742F82310B5
:1025A000034AF7E70080FF1FD490FF1F9C90FF1F96
:1025B000AC90FF1F2DE9F04FDFF80CB3DFF80CA350
:1025C00087B044E0AB4F4FEA930807EBC809013EE0
:1025D000D9F8042003F00803F6B2A2F1080003F0D2
:1025E000FF04002B40F0028157F838301B0C99B2E1
:1025F00022F8081C002B00F0F0809F4B22F8064CBC
:1026000042F8044C53F82620002A00F0C5829B4D66
:1026100055F8263058609A4C45F8260034F81630A4
:10262000194424F8161000F099FD002800F0AD823E
:10263000944A954B19F0080F00F1080018BF134693
:10264000C9F8040047F8383008238BF800309BF8AD
:102650000040E4B261071AD58C4B1B78A3B18C49BA
:102660000A7802F0FF0322B1013BDBB20B7003B921
:1026700000BE88490A7802F0FF032AB1013BDBB2B1
:102680000B70002B00F0578204238BF8003004F00D
:10269000080303F0FF02002B00F0CC809AF8003012
:1026A000DBB21E098ED19C08DFF8C89159F834209E
:1026B00009EBC401C2F38302013A49680C2A00F213
:1026C0008880DFE802F07C7C868686868686478660
:1026D000868607000868704D4A68704F704E286003
:1026E00081B240F28160674B6A604FF0010E0022B8
:1026F000814249F834303A60C9F81020C9F81820EE
:1027000086F800E05B4C00F2E380B1F5D06F80F01A
:102710004683B1F5817F00F0FC8200F28D82802932
:1027200000F07783822940F0FA82A98801F07F01C6
:10273000042900F2F4825B485B4C89000844227053
:1027400062700278930740F1588484F800E04FF0FB
:10275000020E42E3514F3A6832B3544B504E544943
:10276000188834780D784028864645F0020828BF3E
:102770004FF0400E002C84F001043470CEEB0000CA
:102780000CBF8824C82409EBC80680B285F0010577
:1027900044EA0E447260188049F8384072440D7063
:1027A000002800F045813A603B4B1A88B2F5A06FD3
:1027B0000FD100219A7859703E4B1A7009E0364AC1
:1027C000108842F22102904200F037812D4A49F8E8
:1027D0003420394A0123137036E72A4A2A4B19F06C
:1027E000080F18BF134647F838302DE700F0D6FC25
:1027F000324A334952F82630002B00F0D181586814
:102800008C5D42F8260003F10802C9F80420032C6D
:1028100005D8DFE804F02C02292602228A551A88FE
:1028200019F0080F0CBF8823C82343EA024347F876
:10283000383009E7E00700F18181210600F1F281DB
:10284000A20706D51F4A204913780220DBB2137075
:102850000870E30602D51C4B10221A7007B0BDE8C1
:10286000F08F04228A55DAE705228A55D7E703223A
:102870008A55D4E70080FF1F4890FF1FF48FFF1F89
:102880009492FF1FC800400088004000D090FF1FB6
:102890005990FF1FD890FF1FBC90FF1FF08FFF1FA4
:1028A0005890FF1FC0200740C890FF1F0490FF1FD3
:1028B000C490FF1F98200740942007409C90FF1F62
:1028C000D490FF1F882007408020074090200740B9
:1028D00042F22100814200F02A8100F2D880B1F555
:1028E000086F00F07682B1F5106F40F01882226A0E
:1028F000B349A8780870120600F13A83D9F8282065
:10290000B049130600F10C83D9F83020AD49150603
:1029100000F10183D9F83820AA49140600F1F682A3
:10292000D9F84020A749100600F14A83D9F8482079
:10293000A449120600F13F83D9F85020A14913069B
:1029400000F13483D9F858209E49150600F12983F7
:10295000D9F860209B49140600F11E83D9F868203D
:102960009849100600F11383D9F870209549120692
:1029700000F10883D9F878209249130600F1FD820E
:10298000D9F880208F49150600F13183D9F88820C5
:102990008C49140600F12583D9F890208949100646
:1029A00000F11983D9F898208649120600F10D83A9
:1029B0008548864A864901908648874D874C04970A
:1029C00000230596029580460F4616461D46039441
:1029D000306828B1446800F0E1FB2046002CF9D1B2
:1029E00000233360029B38681A46002342F82530E2
:1029F00028B1446800F0D2FB2046002CF9D1002217
:102A00003A60019A98F800301146002241F8042BF0
:102A1000039A0191023B4FF0000122F81510032B9D
:102A200000F22B81DFE813F0700125017001250110
:102A3000BEF1400F18BF0022B5E6694A0D7848780C
:102A4000157050708D78C8789570D07010680D79B9
:102A5000157186284D7989795571917100F09B81A6
:102A60006049614E0A78307882F00105002842F012
:102A700002020D700CBF8821C82149F8321009EB01
:102A8000C20280F001000021307051609EE642F2E7
:102A90002120814240F0CB81544B554C5549A878B8
:102AA0001D682560CDF804E0087000200290804683
:102AB000844604464B490D7845F0020E09EBCE03DF
:102AC0000393019B002B039B5C600CBF8824C824EC
:102AD00044EA080385F0010449F83E3032700C7076
:102AE000DFF8E0E0404BDFF8FC80002840F01E817A
:102AF000BCF1400F1BD144F0020C09EBCC03029C4B
:102B0000DFF8C0E05C60002A40F02681020442F059
:102B100088029DF804304EF83C20044433700D7058
:102B20002346402803D10020334A3B601080334ABB
:102B3000012313704DE600F065FBA5E5214B2F48FE
:102B400028491A614FF0020E80F800E02C4F0A70FD
:102B50002C49196099602C4E2C4D2D4C9A610D21F9
:102B60003970FF213170DFF8B8E029702270294DEB
:102B7000294A8EF800109F27012406F8047C5D6026
:102B80000470DA6007B0BDE8F08F244A47F83800D7
:102B900013780133137057E543F826000E4D3AE5DC
:102BA0008B5D032B00F2F08001A252F823F000BFEE
:102BB00049260000492600006D2C0000672C00000B
:102BC000D090FF1F0080FF1FAC90FF1F4890FF1F99
:102BD0009C90FF1FD490FF1FF48FFF1F9492FF1F44
:102BE0009C92FF1FC490FF1F5890FF1FEC8FFF1F88
:102BF000A492FF1FE490FF1F0490FF1F9420074042
:102C0000C0200740880040008820074080200740FF
:102C1000982007400890FF1F5C90FF1FC590FF1F82
:102C20008C200740C149C24B80220D2008701A70C9
:102C3000A2077FF50EAE05E640F20232914240F067
:102C4000EE80A98801F07F01042968D86A88002AEB
:102C500065D1B648CDF804E089000844017841F018
:102C60000201017021E701238B55EDE400238B5510
:102C7000EAE44FF0010388F800300135042D06F135
:102C8000040607F1040708F101087FF4A1AEA94C7E
:102C9000A94B2278A94D049F059E002129701A7026
:102CA000130700F105816278A549DFF8A0820A7058
:102CB00010074FF00001C9F83010C9F8381000F1C2
:102CC000E080A049A2780A700021C9F85010C9F824
:102CD00058101107DFF8748200F10181E2789A49F7
:102CE0009A4C0A7000211207C9F87010C9F87810C0
:102CF00000F1B08033780193002183F00102C9F81C
:102D00009010C9F89810D0E64FF0000388F8003012
:102D1000B3E7A98801F07F01042940F28D80834A3E
:102D20000F2313708A4A0123137052E540287FF65F
:102D3000E2AE44F002040EEBC401029E4E60BAB152
:102D40009DF80410834A19703346403888F80050C3
:102D500040334EF83420E7E69DF804303370020427
:102D6000029B0D7042F0C80203444EF83C20D8E6A6
:102D70009DF804101970029B774A88F8005040387B
:102D800040334EF83420CFE619F0080F0CBF022371
:102D900003238B5558E4714A0F21117060E6704A85
:102DA0005468002CBBD06888B5F804E003E00C320E
:102DB0005468002CB3D013888342F8D153887345EC
:102DC000F5D1000A03280CBF94F800E0B2F808E03F
:102DD00003E0644A644C12782270E888704580F001
:102DE0003F8162490D784028844645F0020E28BF95
:102DF0004FF0400C04EB0C0309EBCE0202930123CD
:102E00005460CCEB00004FEA0C4800220193C82428
:102E10005EE6554C4FF0020E22706270DDE7B1F5B0
:102E2000A06F7FF47CAF0123002201933DE642F2C4
:102E300021329142F7D072E76A88002A7FF46FAF9F
:102E40003A48CDF804E089000844017821F00201F5
:102E500001702AE600F082F9002800F0EF800830C7
:102E60003D4AC4F88400C4F8802000F077F90028B7
:102E700000F0DE800830374AC9F88C00C9F8882095
:102E800038E700F06BF9002800F0C0800830324AC3
:102E9000C8F84400C8F8402000F060F9002800F0AD
:102EA000AF8008302B4AC9F84C00C9F8482008E721
:102EB00000F054F9002800F0CD800830264AC9F807
:102EC0002400C9F8202000F049F9002800F0BC8057
:102ED0000830204AC9F82C00C9F82820E3E600F0A1
:102EE0003DF9002800F09E8008301B4AC8F86400B5
:102EF000C8F8602000F032F9002800F08D8008301A
:102F0000144AC9F86C00C9F86820E7E6C86B0838AD
:102F100000F044F904E5486B083800F03FF9F9E4A3
:102F2000C86A083800F03AF9EEE400BFC020074054
:102F30008020074038450000C4200740C590FF1F8F
:102F4000C8200740CC200740D02007400080FF1F4A
:102F500094200740C8004000880040005990FF1F9F
:102F60003C450000D090FF1FC890FF1FC490FF1F7A
:102F7000606A083800F012F9C0E4C86F083800F041
:102F80000DF9FDE4486F083800F008F9F2E4C86E66
:102F9000083800F003F9E7E4486E083800F0FEF85E
:102FA000DCE4C86D083800F0F9F8D1E4486D083861
:102FB00000F0F4F8C6E4C86C083800F0EFF8BBE4A1
:102FC000486C083800F0EAF8B0E4D1F89C00083802
:102FD00000F0E4F8ECE4D1F89400083800F0DEF8F2
:102FE000E0E4D1F88C00083800F0D8F8D4E4D1F847
:102FF0008400083800F0D2F8C8E44FF0020EECE686
:103000002A78C9F8480001322A705AE62A78C8F8A6
:10301000400001322A703FE72A78C9F8680001327F
:103020002A705BE62A78C8F8600001322A7061E7EE
:103030002A78C9F8880001322A705BE62A78C4F839
:10304000800001322A7010E72A78C9F8280001327E
:103050002A7028E62A78C9F8200001322A7032E75F
:10306000BEF1400FF44628BF4FF0400C04EB0C03B8
:1030700002930123CCEB0E004FEA0C48002201938F
:1030800018E500BFF8B500F075FC294B29482A4C1B
:103090002A4F2B4DDFF8BCC0DFF8BCE0294E0022E0
:1030A0001A605A609A60DA601A615A619A61DA614C
:1030B0001A625A629A62DA621A635A639A63DA632C
:1030C0001A645A649A64DA641A655A659A65DA650C
:1030D0001A665A669A66DA661A675A679A67DA67EC
:1030E000C3F880200168C3F8842041F48021016086
:1030F000C3F307212170C3F30740134938701B0E37
:103100002B70FF238CF80030104D8EF800301048E3
:103110000B700123337084F8642070264FF4007420
:10312000102207F82C3C2E70046081F8F820F8BDBE
:103130000080FF1F348004409C200740B0200740DF
:10314000B4200740942007401020074049E400E0E5
:1031500008E100E0802007408820074072B60D4853
:103160000268B2FA82F30B2B10DC4FF00041D94019
:1031700022EA0102026062B6074803EBC303DB00E8
:10318000C2180021C15010465160704762B600203D
:10319000704700BFE888FF1FBC83FF1F0D4B0E4A1E
:1031A000C31AA2FB03231B090B2B0CD80B4A127862
:1031B00052B972B60A484FF00041026821FA03F38F
:1031C0001A43026062B67047064A1278002AF0D0AD
:1031D000FFF74AB9BC83FF1F398EE338C590FF1F44
:1031E000E888FF1FD090FF1F044B054A1B6890889A
:1031F0001BB11A885B88D31A18447047E090FF1FF0
:103200009492FF1F38B50E4B1B7873B90D4C216893
:1032100061B103F0FF054B880B800420FFF788F9AC
:10322000256038BD084B01221A7038BDFFF796FFA4
:103230000028F7D00146BDE838400420FFF778B9F0
:10324000D990FF1FDC90FF1FD890FF1F38B5224C8C
:10325000237803B138BD01232370FFF7C5FF70BB8E
:1032600000F0E0F940BB00F073FA10BB00F006FB81
:10327000E0B900232370EFF30583002BEAD1EFF3CD
:10328000108172B6154B1868E0B1154C2278CAB996
:1032900045691D6001232370C5B1AA6101B962B6F9
:1032A00000254577836898472570D3E700F018F923
:1032B000DFE700F013F9D9E700F00EF9D3E700F0EB
:1032C0009BFBCDE70029C5D162B638BD054B1D601B
:1032D0000029E5D1E3E700BFE590FF1FF890FF1F4D
:1032E000FC90FF1FF490FF1F10B4EFF3108272B632
:1032F000437F33B9017F012907D003290FD0012370
:10330000437702B962B610BC7047124C2168A1B174
:10331000114943610B68836108605861EFE70F4C06
:10332000216881B10E4943610B688361086058616F
:103330000C4B4FF080511960E1E7074B416181610F
:1033400020601860DBE7064B4161816120601860F6
:10335000EEE700BFF890FF1FF490FF1FE890FF1FFB
:10336000EC90FF1F04ED00E010B4047F4160022CDC
:10337000C26002D010BCFFF7B7BF836810BC18470B
:1033800070B5EFF3108272B60C4C206880B10C4E11
:1033900000254369236073B19D6102B962B6457728
:1033A00083689847EFF3108272B620680028F0D146
:1033B00002B962B670BD3360EFE700BFE890FF1F4F
:1033C000EC90FF1FFFF7DCBF184A30B41468002CE4
:1033D00027D0036821688B420ED2CB1A002184606B
:1033E000C1602360E06010600223037530BC704749
:1033F00011688B42144608D3A2685B1A0360002A46
:10340000F6D18260C460A060EEE7D268C2608460DA
:10341000E060C568CB1A0222A8602360027530BC48
:1034200070478460C4601060DEE700BFF090FF1F4B
:10343000F8B5224E34682CB32368002B3AD1204FC4
:103440001D4604E03468ECB12368002B32D1A36838
:1034500003B1DD6020693360036825751B68BB42DA
:1034600021D1037F4560022BC46020D0FFF73CFFD1
:103470006368002BE6D023602046FFF7A5FF346881
:10348000002CE1D1EFF3108372B60E4A00211068D0
:10349000116003B962B628B18468FFF795FF204632
:1034A0000028F9D1F8BD224600219847E0E783685B
:1034B0009847DDE7013B2360E4E700BFF090FF1F82
:1034C000693300000091FF1F024A13680133136043
:1034D000FFF7AEBFEC8FFF1F704700BF704700BF04
:1034E000704700BF30B42948294A2A4B2A4D60242E
:1034F000E121047011701B78284C082B30D00A2B66
:103500002748284937D00C2B0CBF15223D22122307
:103510002A60236002600B60234B24491B78244AF5
:10352000BBB101230B601360224B23491B78234A54
:10353000012B26D9042B0FD9082B1ED9102B94BF91
:10354000862387230B6013601D4B01221A7030BC49
:1035500070470B601360E7E784230B601360F3E7A9
:1035600000F58E200F490830012213232A602360C2
:1035700002600B60D0E71922F7E785230B60136028
:10358000E2E780230B601360DEE700BF00400740E6
:1035900001400740EC88FF1F08B003400CB0034017
:1035A00008B00B400CB00B400591FF1F20B003404A
:1035B00020B00B40ED88FF1F24B0034024B00B4027
:1035C0000491FF1F08B5104C08E0236859050DD47D
:1035D00023681A050FD42368DB0411D42368580329
:1035E000F3D5FEF7E7FF23685905F1D500F02AF877
:1035F00023681A05EFD500F0BBF82368DB04EDD58E
:1036000000F04CF9EAE700BF3480044008B5FFF74A
:10361000D9FF00BF014B10221A80704700200540DF
:10362000704700BF054A064B10781B78C0B2DBB26A
:10363000984238BF4030C01A704700BF0C91FF1F3E
:103640000D91FF1FF0B4384B1A7912F0300F2CD0C7
:1036500072B6997D01F0FF0200293DD062B6334F6A
:10366000334938780D78334E1C46C0B2EDB2431C56
:10367000402BE17928BF0023AB4202F1FF32C9B2EF
:103680001CBFF154184612F0FF02F0D12A4B1B6800
:10369000C2B23A704BB1A84236BFC5F14005401BDB
:1036A00040192728C4BF01221A701F49CA78D2B214
:1036B000150616D452060DD51B4B1B795B0609D592
:1036C0001E4B1F491B6800220A7003B11A70164B6B
:1036D0003C22DA70F0BC70474022D9795A7462B645
:1036E000E3E70B791C06E5D5164B174E1C783378AB
:1036F000E4B2DBB29C420ED0144D01E0A3420AD0EA
:103700000133402B28BF00230879E85CC0B2C871A0
:10371000087D0728F2D9DBB2034933700B7918060C
:1037200044BF7C23CB70C5E700A006400C91FF1F6F
:103730000D91FF1F5091FF1F0891FF1F9491FF1FD4
:103740009091FF1F9891FF1F9191FF1F1091FF1FF4
:10375000054A064B10781B78C0B2DBB2984238BFDE
:103760004030C01A704700BF0C92FF1FA191FF1F8D
:10377000F0B4384B1A7912F0300F2CD072B6997D14
:1037800001F0FF0200293DD062B6334F334938784B
:103790000D78334E1C46C0B2EDB2431C402BE1798C
:1037A00028BF0023AB4202F1FF32C9B21CBFF15463
:1037B000184612F0FF02F0D12A4B1B68C2B23A70D1
:1037C0004BB1A84236BFC5F14005401B4019272820
:1037D000C4BF01221A701F49CA78D2B2150616D486
:1037E00052060DD51B4B1B795B0609D51E4B1F4995
:1037F0001B6800220A7003B11A70164B3C22DA7063
:10380000F0BC70474022D9795A7462B6E3E70B796D
:103810001C06E5D5164B174E1C783378E4B2DBB2A4
:103820009C420ED0144D01E0A3420AD00133282B54
:1038300028BF00230879E85CC0B2C871087D07285A
:10384000F2D9DBB2034933700B79180644BF7C23ED
:10385000CB70C5E700B006400C92FF1FA191FF1F7F
:10386000CC91FF1F9C91FF1F1092FF1FA091FF1F83
:103870001492FF1F0D92FF1FA491FF1F054A064BD4
:1038800010781B78C0B2DBB2984238BF4030C01A03
:10389000704700BF1C92FF1F1D92FF1F30B42B4BBF
:1038A0001A7994061FD52A48DA7903782949013311
:1038B0003F2B0978C8BF00238B42D2B203D0264CDD
:1038C000D9B2E2540170254A116861B1244A1278D4
:1038D000D2B2934236BFC2F140029B1A9B18272BEB
:1038E000C4BF01230B70194AD378DBB2180611D478
:1038F0005A060DD5154B1B795B0609D5194B1A498C
:103900001B6800220A7003B11A70104B2C22DA7067
:1039100030BC704711790906EAD5144910480C7873
:103920000178C9B28C420DD04A1C272A84BF0021DD
:103930000A460F4D054C98BFD1B2AA5CD2B2E271D3
:103940000170D5E76C21D170D2E700BF00C00640FE
:103950001C92FF1F1D92FF1F4892FF1F1892FF1F0E
:103960008992FF1F8C92FF1F8892FF1F9092FF1F6A
:103970002092FF1F70B584B072B6194B194D1A48CA
:10398000702241260F2480211A702E701A4604706E
:10399000197013781B06FCD5144B186862B6144BCB
:1039A000144C984298BF00EB800001A998BF4000DA
:1039B0000A2200F023F801A92046002311F8012B68
:1039C00001333AB10A2B20F8022FF7D116232370C6
:1039D00004B070BD5B00DBB2237004B070BD00BFEB
:1039E00000000240070002400600024008000240BA
:1039F0007F9698007C89FF1F704700BFF0B44D1E72
:103A00002E46002400E00134B0FBF2F302FB130069
:103A1000092800F130078ABF3730F8B2C0B206F883
:103A2000010F1846002BEED10A1953704CB11078D3
:103A300015F8016F28700133E01A834202F801691A
:103A4000F5DB0846F0BC704781F0004102E000BFA2
:103A500083F0004330B54FEA41044FEA430594EA4E
:103A6000050F08BF90EA020F1FBF54EA000C55EA89
:103A7000020C7FEA645C7FEA655C00F0E2804FEA5A
:103A80005454D4EB5555B8BF6D420CDD2C4480EA3C
:103A9000020281EA030382EA000083EA010180EA6C
:103AA000020281EA0303362D88BF30BD11F0004FBA
:103AB0004FEA01314FF4801C4CEA113102D04042F0
:103AC00061EB410113F0004F4FEA03334CEA13332B
:103AD00002D0524263EB430394EA050F00F0A78043
:103AE000A4F10104D5F1200E0DDB02FA0EFC22FA3E
:103AF00005F2801841F1000103FA0EF2801843FA32
:103B000005F359410EE0A5F120050EF1200E012A22
:103B100003FA0EFC28BF4CF0020C43FA05F3C01860
:103B200051EBE37101F0004507D54FF0000EDCF1D9
:103B3000000C7EEB00006EEB0101B1F5801F1BD382
:103B4000B1F5001F0CD349085FEA30004FEA3C0C86
:103B500004F101044FEA445212F5800F80F09A807C
:103B6000BCF1004F08BF5FEA500C50F1000041EB80
:103B7000045141EA050130BD5FEA4C0C404141EB84
:103B8000010111F4801FA4F10104E9D191F0000FAB
:103B900004BF01460020B1FA81F308BF2033A3F12E
:103BA0000B03B3F120020CDA0C3208DD02F1140C25
:103BB000C2F10C0201FA0CF021FA02F10CE002F160
:103BC0001402D8BFC2F1200C01FA02F120FA0CFC59
:103BD000DCBF41EA0C019040E41AA2BF01EB0451A2
:103BE000294330BD6FEA04041F3C1CDA0C340EDCA0
:103BF00004F11404C4F1200220FA04F001FA02F3E3
:103C000040EA030021FA04F345EA030130BDC4F1A0
:103C10000C04C4F1200220FA02F001FA04F340EA95
:103C20000300294630BD21FA04F0294630BD94F046
:103C3000000F83F4801306BF81F480110134013D2D
:103C40004EE77FEA645C18BF7FEA655C29D094EA9E
:103C5000050F08BF90EA020F05D054EA000C04BF1C
:103C60001946104630BD91EA030F1EBF0021002007
:103C700030BD5FEA545C05D14000494128BF41F0A6
:103C8000004130BD14F580043CBF01F5801130BD0A
:103C900001F0004545F0FE4141F470014FF0000095
:103CA00030BD7FEA645C1ABF194610467FEA655C46
:103CB0001CBF0B46024650EA013406BF52EA0335E8
:103CC00091EA030F41F4002130BD00BF90F0000FD6
:103CD00004BF0021704730B54FF4806404F1320412
:103CE0004FF000054FF0000150E700BF90F0000FCB
:103CF00004BF0021704730B54FF4806404F13204F2
:103D000010F0004548BF40424FF000013EE700BFC1
:103D100042004FEAE2014FEA31014FEA02701FBF51
:103D200012F07F4393F07F4F81F06051704792F023
:103D3000000F14BF93F07F4F704730B54FF460749D
:103D400001F0004521F0004120E700BF50EA0102E8
:103D500008BF704730B54FF000050AE050EA010295
:103D600008BF704730B511F0004502D5404261EB05
:103D700041014FF4806404F132045FEA915C3FF446
:103D8000DCAE4FF003025FEADC0C18BF03325FEADF
:103D9000DC0C18BF033202EBDC02C2F1200300FA94
:103DA00003FC20FA02F001FA03FE40EA0E0021FAB9
:103DB00002F11444C1E600BF70B54FF0FF0C4CF4A3
:103DC000E06C1CEA11541DBF1CEA135594EA0C0F59
:103DD00095EA0C0F00F0DEF82C4481EA030621EA94
:103DE0004C5123EA4C5350EA013518BF52EA0335CF
:103DF00041F4801143F4801338D0A0FB02CE4FF081
:103E00000005E1FB02E506F00042E0FB03E54FF0B0
:103E10000006E1FB03569CF0000F18BF4EF0010EA8
:103E2000A4F1FF04B6F5007F64F5407404D25FEAA4
:103E30004E0E6D4146EB060642EAC62141EA555157
:103E40004FEAC52040EA5E504FEACE2EB4F1FD0C99
:103E500088BFBCF5E06F1ED8BEF1004F08BF5FEA17
:103E6000500E50F1000041EB045170BD06F00046C9
:103E700046EA010140EA020081EA0301B4EB5C0476
:103E8000C2BFD4EB0C0541EA045170BD41F480116E
:103E90004FF0000E013C00F3AB8014F1360FDEBF93
:103EA000002001F0004170BDC4F10004203C35DA6F
:103EB0000C341BDC04F11404C4F1200500FA05F3F2
:103EC00020FA04F001FA05F240EA020001F0004293
:103ED00021F0004110EBD37021FA04F642EB060109
:103EE0005EEA430E08BF20EAD37070BDC4F10C0433
:103EF000C4F1200500FA04F320FA05F001FA04F2F7
:103F000040EA020001F0004110EBD37041F10001E2
:103F10005EEA430E08BF20EAD37070BDC4F12005ED
:103F200000FA05F24EEA020E20FA04F301FA05F255
:103F300043EA020321FA04F001F0004121FA04F2FD
:103F400020EA020000EBD3705EEA430E08BF20EACD
:103F5000D37070BD94F0000F0FD101F00046400007
:103F600041EB010111F4801F08BF013CF7D041EA89
:103F7000060195F0000F18BF704703F0004652008D
:103F800043EB030313F4801F08BF013DF7D043EA5E
:103F90000603704794EA0C0F0CEA135518BF95EA14
:103FA0000C0F0CD050EA410618BF52EA4306D1D19B
:103FB00081EA030101F000414FF0000070BD50EABA
:103FC000410606BF1046194652EA430619D094EA44
:103FD0000C0F02D150EA013613D195EA0C0F05D12E
:103FE00052EA03361CBF104619460AD181EA030182
:103FF00001F0004141F0FE4141F470014FF000003A
:1040000070BD41F0FE4141F4780170BD70B54FF0D4
:10401000FF0C4CF4E06C1CEA11541DBF1CEA135554
:1040200094EA0C0F95EA0C0F00F0A7F8A4EB050436
:1040300081EA030E52EA03354FEA013100F088802D
:104040004FEA03334FF0805545EA131343EA1263F6
:104050004FEA022245EA111545EA10654FEA0026AB
:104060000EF000419D4208BF964244F1FD0404F564
:10407000407402D25B084FEA3202B61A65EB0305C0
:104080005B084FEA32024FF480104FF4002CB6EB7D
:10409000020E75EB030E22BFB61A754640EA0C00FD
:1040A0005B084FEA3202B6EB020E75EB030E22BF3D
:1040B000B61A754640EA5C005B084FEA3202B6EB7E
:1040C000020E75EB030E22BFB61A754640EA9C003D
:1040D0005B084FEA3202B6EB020E75EB030E22BF0D
:1040E000B61A754640EADC0055EA060E18D04FEACB
:1040F000051545EA16754FEA06164FEAC30343EA6B
:1041000052734FEAC2025FEA1C1CC0D111F4801F37
:104110000BD141EA00014FF000004FF0004CB6E730
:1041200011F4801F04BF01430020B4F1FD0C88BFCF
:10413000BCF5E06F3FF6AFAEB5EB030C04BFB6EBDA
:10414000020C5FEA500C50F1000041EB045170BDCD
:104150000EF0004E4EEA113114EB5C04C2BFD4EBFA
:104160000C0541EA045170BD41F480114FF0000E7E
:10417000013C90E645EA060E8DE60CEA135594EAFA
:104180000C0F08BF95EA0C0F3FF43BAF94EA0C0FFD
:104190000AD150EA01347FF434AF95EA0C0F7FF472
:1041A00025AF104619462CE795EA0C0F06D152EAC6
:1041B00003353FF4FDAE1046194622E750EA4106AA
:1041C00018BF52EA43067FF4C5AE50EA41047FF4BB
:1041D0000DAF52EA43057FF4EBAE12E74FF0FF3C20
:1041E00006E000BF4FF0010C02E000BF4FF0010CF1
:1041F0004DF804CD4FEA410C7FEA6C5C4FEA430C6A
:1042000018BF7FEA6C5C1BD001B050EA410C0CBFB8
:1042100052EA430C91EA030F02BF90EA020F00201A
:10422000704710F1000F91EA030F58BF994208BF81
:1042300090422CBFD8176FEAE37040F0010070473E
:104240004FEA410C7FEA6C5C02D150EA013C07D195
:104250004FEA430C7FEA6C5CD6D152EA033CD3D0E0
:104260005DF8040B704700BF8446104662468C46DA
:104270001946634600E000BF01B5FFF7B7FF00280D
:1042800048BF10F1000F01BD4DF808EDFFF7F4FF36
:104290000CBF012000205DF808FB00BF4DF808EDC1
:1042A000FFF7EAFF34BF012000205DF808FB00BFE4
:1042B0004DF808EDFFF7E0FF94BF012000205DF806
:1042C00008FB00BF4DF808EDFFF7CEFF94BF0120BB
:1042D00000205DF808FB00BF4DF808EDFFF7C4FFB4
:1042E00034BF012000205DF808FB00BF70B50F4E01
:1042F0000F4D761BB61018BF002405D0013455F8B9
:10430000043B9847A642F9D10A4E0B4D761B00F0AC
:1043100041F9B61018BF002406D0013455F8043B0B
:104320009847A642F9D170BD70BD00BFA0450000FE
:10433000A0450000AC450000A0450000024B13B1B1
:10434000024800F005B87047000000005D4300001F
:10435000002301461A46184600F014B838B5074D38
:10436000074C2C1BA41005D0013C55F8043D984780
:10437000002CF9D1BDE8384000F018B90000000069
:10438000000000002DE9F047254C2568D5F848418C
:104390000646884692469946C4B360681F2817DCD3
:1043A000431C76B104EB80050122C5F888A0D4F83F
:1043B000881182401143022EC4F88811C5F8089173
:1043C0001ED00230636044F820800020BDE8F087F2
:1043D000144B03B34FF4C870AFF300800446D0B160
:1043E000D5F84831002780E88800C5F848413846AC
:1043F0000123C4F88871C4F88C71002EE1D0D1E794
:10440000D4F88C110A43C4F88C21DAE705F5A674B8
:10441000C5F84841C1E74FF0FF30BDE8F08700BF65
:1044200090450000000000004008FE4340A004400A
:104430004408FE4344A004400018FE4300C004406A
:104440003000FE43309004403400FE43349004407A
:104450001C18FE431CC004401018FE4310C004404A
:104460000818FE4308C004400C18FE430CC004406A
:104470000C10FE430CB004401010FE4310B004407A
:104480001810FE4318B004401C10FE431CB004403A
:104490001410FE4314B004400418FE4304C004404A
:1044A0000010FE4300B004400008FE4300A004409A
:1044B0000408FE4304A004400C08FE430CA0044082
:1044C0000808FE4308A004401418FE4314C004402A
:1044D0001818FE4318C004400410FE4304B0044002
:1044E0000810FE4308B004401400FE43149004403A
:1044F0004C08FE434CA004400420FE4304D004407A
:104500002410FE4324B004402010FE4320B0044099
:104510002810FE4328B004402C10FE432CB0044069
:104520000020FE4300D004404808FE4348A0044059
:104530001000FE4310900440001519150001000002
:10454000F088FF1F12000000000200001C89FF1FFE
:1045500043000000000300007889FF1F00000000F6
:10456000010309040489FF1F00000000020309047D
:104570006089FF1F00000000030309047C89FF1FFE
:10458000000000000000000000000000000000002B
:104590009889FF1FF8B500BFF8BC08BC9E4670475D
:0C45A0003D43000035040000251F000012
:0445AC00F8B500BF9F
:1045B00038B5084B1C681C6054B1074D94FAA4F33D
:1045C000B3FA83F355F823309847631E1C40F5D1A6
:1045D00038BD00BFA0D00440E088FF1F38B5084BAD
:1045E0001C681C6054B1074D94FAA4F3B3FA83F32A
:1045F00055F823309847631E1C40F5D138BD00BFE5
:10460000A0C00440C088FF1F38B5084B1C681C6060
:1046100054B1074D94FAA4F3B3FA83F355F8233059
:104620009847631E1C40F5D138BD00BFA0B00440C0
:104630009088FF1F38B5084B1C681C6054B1074DAB
:1046400094FAA4F3B3FA83F355F823309847631E22
:104650001C40F5D138BD00BFA0A004404088FF1F1A
:1046600038B5084B1C681C6054B1074D94FAA4F38C
:10467000B3FA83F355F823309847631E1C40F5D1F5
:1046800038BD00BFA09004400888FF1F0000000054
:10469000000000000000F03F45210000452100001F
:1046A0004521000045210000452100004521000072
:1046B0004521000045210000452100004521000062
:1046C0004521000045210000452100004521000052
:1046D0004521000045210000452100004521000042
:1046E0004521000045210000452100004521000032
:1046F0004521000045210000452100004521000022
:104700004521000045210000452100004521000011
:104710004521000045210000452100004521000001
:1047200045210000452100004521000045210000F1
:1047300045210000452100004521000045210000E1
:1047400045210000452100004521000045210000D1
:1047500045210000452100004521000045210000C1
:1047600045210000452100004521000045210000B1
:104770004521000045210000FFFFFFFF0A04000063
:104780001201100102000040C016830475020102EC
:104790000301000018035400650065006E007300FB
:1047A00079006400750069006E006F000902430023
:1047B000020100C0320904000001020201000524C8
:1047C000001001052401010104240206052406004D
:1047D000010705820310004009040100020A0000DD
:1047E00000070503024000000705840240000000A6
:1047F000160355005300420020005300650072006C
:10480000690061006C000000040309040C0300004F
:104810000000000000000000000000000000000098
:10482000000000000000000000000000848CFF1F5A
:10483000EC8CFF1F548DFF1F0000000000000000E3
:104840000000000000000000000000000000000068
:104850000000000000000000000000000000000058
:104860000000000000000000000000000000000048
:104870000000000000000000000000000000000038
:104880000000000000000000000000000000000028
:104890000000000000000000000000000000000018
:1048A0000000000000000000000000000000000008
:1048B00000000000000000000000000000000000F8
:1048C00000000000000000000000000000000000E8
:1048D00001000000000000000E33CDAB34126DE685
:1048E000ECDE05000B0000000000000000000000EE
:1048F00000000000000000000000000000000000B8
:1049000000000000000000000000000000000000A7
:104910000000000000000000000000000000000097
:104920000000000000000000000000000000000087
:00000001FF
