:10000000F8FF0220990100007D360000353600001F
:100010003536000035360000353600003536000034
:100020003536000035360000353600007D360000DC
:100030007D36000035360000C1500000C55000007C
:100040007D3600007D3600007D3600007D360000E4
:100050007D3600007D3600007D3600007D360000D4
:100060007D3600007D3600007D3600007D360000C4
:100070007D3600007D3600007D3600007D360000B4
:100080007D3600007D3600007D3600007D360000A4
:100090007D3600007D3600007D3600007D36000094
:1000A0007D3600007D3600007D3600007D36000084
:1000B0007D3600007D3600007D3600007D36000074
:1000C0007D3600007D3600007D3600007D36000064
:1000D0007D3600007D3600007D3600007D36000054
:1000E0007D3600007D3600007D360000AD34000016
:1000F0007D3600007D3600007D3600007D36000034
:100100007D3600007D3600007D3600007D36000023
:100110007D360000814000007D3600007D36000005
:100120007D3600007D3600007D3600007D36000003
:100130007D3600007D3600007D3600007D360000F3
:100140007D3600007D3600007D3600007D360000E3
:100150007D3600007D3600007D3600007D360000D3
:100160007D3600007D3600007D3600007D360000C3
:100170007D3600007D3600007D3600007D360000B3
:100180007D3600007D3600007D3600007D360000A3
:100190007D3600007D360000584B4CF2205210B5E1
:1001A0001A804DF628121A8000BF00BF03F06AFAC9
:1001B000534B4FF030621A60524A9A60524ADA60EA
:1001C000524B4FF470021A60514A136813F4807353
:1001D00004D150490B604FF4A85313604E4B1A786A
:1001E000110703D51A7842F008021A704B4B4C499C
:1001F0002A221A704B4A4C4B8B4204D252F8040FFD
:1002000043F8040BF8E7494B494900228B4202D2DC
:1002100043F8042BFAE74749474A002352F82300E2
:1002200041F823000133662BF8D1444B444A802126
:1002300003F8011B9342FBD1424B3E4A1A60424BEA
:100240008A221A70A3F5805324225A70A0221A70B1
:100250009A799207FCD59A79D406FCD43B4A9379D3
:1002600003F00C03082B394BF9D103221A714622F3
:100270005A719A799006FCD5344A9179334B4906E4
:10028000FBD5334A4FF08271116009215160202261
:100290001A709A7902F00C020C2AFAD12D4B2E4AD0
:1002A0001A602E4B2E4A1A6000225A60072243F829
:1002B000042C2C4AC3F80C2D62B603F073FD154BC9
:1002C0001B68DA0705D5284803F0DAFA274B284AD5
:1002D0001A60284B1B785B0609D5244C244B2268F6
:1002E0009A4204D1204803F0CBFA0023236005F0A2
:1002F00009F803F0CDF903F0FBF8FEE70E20054006
:1003000030800440823F04000100002B88ED00E0B3
:1003100010D0034014D0034002D0074000E0074053
:100320009412FF1F38670000F806FF1F9412FF1F8A
:10033000EC19FF1F0002FF1F0000000000E400E0B6
:1003400056E400E008ED00E00050064000400640A2
:100350004480044004800440C010050014E000E024
:10036000BFD4010000002020B7FCBF5F1CE00340A9
:10037000A5C3945A00F00740FFFFFFFFFFFFFFFFF8
:10038000FFFFFFFFFFFFFFFFFFFFFFFFFFFFFFFF7D
:10039000FFFFFFFFFFFFFFFFFFFFFFFFFFFFFFFF6D
:1003A000FFFFFFFFFFFFFFFFFFFFFFFFFFFFFFFF5D
:1003B000FFFFFFFFFFFFFFFFFFFFFFFFFFFFFFFF4D
:1003C000FFFFFFFFFFFFFFFFFFFFFFFFFFFFFFFF3D
:1003D000FFFFFFFFFFFFFFFFFFFFFFFFFFFFFFFF2D
:1003E000FFFFFFFFFFFFFFFFFFFFFFFFFFFFFFFF1D
:1003F000FFFFFFFFFFFFFFFFFFFFFFFFFFFFFFFF0D
:10040000FFFFFFFFFFFFFFFFFFFFFFFFDEF9FFFF23
:1004100010B5054C237833B9044B13B10448AFF33E
:1004200000800123237010BD9412FF1F0000000004
:100430003C670000084B10B51BB108490848AFF3F2
:1004400000800848036803B910BD074B002BFBD0A0
:10045000BDE81040184700BF000000009812FF1FC1
:100460003C6700009412FF1F0000000043680B70FF
:1004700043681B0A4B70C3888B70C379CB70836849
:100480000B7183681B0A4B7143898B71C37ACB71E3
:10049000082070470B7843604A7843EA02234360A0
:1004A0008A7843EA02434360CA7843EA02634360BE
:1004B0000B7983604A7943EA022383608A7943EAAD
:1004C00002438360CA7943EA02638360082070476D
:1004D00000487047EC62000000487047FC62000072
:1004E000F0B50C460A788280064614F8010F002306
:1004F00042EA0022B2801A4614F8010F98400833ED
:10050000202B42EA0002F7D1971D062F58D901F19E
:10051000050E551D73464C1913F8010F03F8010C15
:10052000A342F9D100234B5518460D44C6F808E004
:1005300015F8014F84400830202843EA0403F7D11E
:10054000381D0344834209D909320A440446013460
:1005500012F8015F02F8015CA342F8D80138CF1805
:100560000024084407F8014C2246F06017F8015BAC
:1005700095400832202A44EA0504F7D1181D0444A6
:10058000A04209D203330B440246013213F8015F43
:1005900003F8015CA242F8D30D1901380844002386
:1005A00005F8013C3061A8786B780A5DED780104AC
:1005B00041EA0323134343EA0563201D7361F0BD41
:1005C000551D01F1050EADE700487047206300009E
:1005D000004870473C6300000B78F0B403710023BF
:1005E00006460C461D4614F8012F9A400833202B6E
:1005F00045EA0205F7D1681D052801F1040708D96D
:100600002C1D3B460C4413F8012F03F8012C9C428F
:10061000F9D10D4400232B71B760F0BC704700BFC7
:100620000048704760630000004870477463000032
:1006300000487047806400000048704798630000DD
:1006400003790B70012070470B780371012070470C
:1006500000487047BC63000000487047CC6300004E
:10066000B0F904300B70C3F307234B7083798B70A0
:10067000032070474A780B7843EA022383808B7803
:1006800083710320704700BF00487047F06300008B
:1006900000487047FC630000024A1368013313608E
:1006A000704700BFE812FF1F90F8F804704700BFC2
:1006B00010B40B784C78426943EA042303828B78A8
:1006C00083745DF8044B0C30104700BF806970479D
:1006D00000487047F063000000487047FC6300006A
:1006E0000B78037443690C30184700BF806970476A
:1006F00000487047BC63000000487047CC630000AE
:1007000004F0DCBA43682DE9F0470B7043681B0A1C
:100710004B70C3888B70C379CB704368002B00F09B
:1007200085800A4600250426C36853F825301371D6
:100730001C0C1F0A1B0E94715771D371436801354D
:10074000AB42344602F1040206F10406ECD804F18F
:10075000080204F1050A04F1060904F1070804F18E
:10076000090C04F10A0E04F10B0517460C34036959
:100770008B5503691B0A01F80A30438A01F80930D6
:10078000C37C01F808300369F3B101EB070E75462D
:100790000022836953F822300EF822301C0C1E0A06
:1007A0001B0EAC706E70EB700369013293423C46D5
:1007B00005F1040507F10407EBD804F1050C04F179
:1007C000060EE51D3A460834C3698B54C3691B0AFB
:1007D00001F80C30C38B01F80E30C37F4B55C36951
:1007E0000BB30F4680460026D8F8243053F8260075
:1007F00004F0C6FFB10005463A19002325FA03F0BC
:100800000833202B02F8010BF8D1D8F82430043437
:10081000381959582A4602F073FED8F81C300136B0
:10082000B3422C44E0D82046BDE8F08708221746A2
:100830000C240B254FF00A0E4FF0090C4FF007085F
:100840004FF006094FF0050A042690E770B50379CA
:100850000B70064680680D4604F092FF2A46044657
:10086000002324FA03F10833202B02F8011FF8D1EA
:10087000B168681D224602F043FE601D70BD00BFD6
:10088000F8B583880B7083881B0A4B700646806816
:100890000D4604F075FF030E010A020C6B71A8707F
:1008A0002A71E97002460446B168A81D02F028FECC
:1008B000F06804F065FF611D0246294406340023F8
:1008C00022FA03F00833202B01F8010FF8D1043489
:1008D0002819F168144402F013FE306904F050FF47
:1008E0002A190746002327FA03F10833202B02F8C0
:1008F000011BF8D1043428193A46316902F000FE90
:10090000381973692B540544190A1A0C1B0E6970A7
:10091000AA70EB700430F8BD084604F0B9BA00BF05
:100920002DE9F04F43680C689C4283B005460E46A3
:1009300000F2B3806C60002C00F0B88005F1080C68
:10094000334600274FF0040E9C795A79197993F8B1
:100950000780E868240444EA02220A4342EA086263
:10096000AA60DCF8002040F827206A680137BA4204
:10097000714603F104030EF1040EE5D801F10808F5
:1009800047464B1D881DCA1D01F1090A01F10A0BDA
:1009900001F10B0901F10C04305CF35C16F80E1048
:1009A00016F802E02A69000440EA03230B4343EAF5
:1009B0000E63934200F290802B613BB305F1140C5F
:1009C000F3194FF0000E9C785A78197893F8038049
:1009D000A869240444EA02220A4342EA08626A61DE
:1009E000DCF8002040F82E202A690EF1010E724535
:1009F0003C4603F1040307F10407E4D804F1050AB7
:100A000004F1060B04F10709B846083416F80B2068
:100A100016F80A0016F8083016F80970E969120489
:100A200042EA0022134343EA07678F424ED8EF6140
:100A30007FB30027BC4605F1200E0023194630196C
:100A400010F8012B9A400833202B41EA0201F7D11C
:100A500004F104084144884509D2E31C334442466A
:100A6000013213F8010F03F8010C8A42F8D372180F
:100A700008F1FF3802F801CC06EB08032B626A6A22
:100A8000DEF8003042F82730EB690137BB420C46F4
:100A9000D3D8204603B0BDE8F08FA100C06804F0B1
:100AA00059FC6C60E860002C7FF448AF4FF00808F8
:100AB00047460C244FF00B094FF00A0B4FF0090A80
:100AC0000722062005234FF0040E65E7B900686A87
:100AD00004F040FC6862AAE79900A869019304F059
:100AE00039FC019BA86167E710B5064C042021780A
:100AF00003F0FEF82178032081F00101BDE81040E9
:100B000003F0F6B8E512FF1F10B50D4BB0F9041055
:100B10000C4A0D4C1960807920700021116082B060
:100B20001A680192019A8A42019A0849D8BF524232
:100B30001A600B780BB9FFF7D7FF02B010BD00BFEA
:100B40003018FF1F6818FF1FE512FF1FE412FF1F78
:100B5000F0B585B0364A01920368364D03950322FD
:100B60008DF808201B6834498B425AD10023382164
:100B7000044680F8232205F1300E80F8241280F814
:100B8000253280F8263280F8273200F50A772E4683
:100B90000FCE764538607960BA60FB60354607F164
:100BA0001007F4D103CD00227960C2234FF0FF0E6D
:100BB000FE263D250721386084F8203284F81CE2A7
:100BC00084F81D6284F81E5284F81F2284F82222C1
:100BD00084F8211204F2212304F25F2001E013F8CB
:100BE000011F83420A44FAD1D243144E84F8602292
:100BF00004F21B2504F5187703E004F049F9BD421F
:100C00000BD0626815F8011F13681B68B3420846D1
:100C1000F3D010469847BD42F3D14FF0FF3005B0F6
:100C2000F0BD01AA072198474FF0FF3005B0F0BD95
:100C30005062000020640000410C0000190900000F
:100C40002DE9F041632984B003DD90F8F874002F9A
:100C500053D0136805460F4610461B6805F2232142
:100C60009847C2B2C0F30721561885F81E2247F3F1
:100C70000722F643FF234FF0FE0EFCB285F8222236
:100C8000421C85F8206285F81F1285F81C3285F811
:100C90001DE285F821420DDB00F22221294405F2F4
:100CA0002123002201E013F8014F99422244FAD196
:100CB000D343DBB22A1800F10807B7F5007F82F8AA
:100CC00023321EDC002F05F5077616DD0730DFF82E
:100CD0001081064405F21B2403E004F0D9F8B44265
:100CE0000BD06A6814F8011F13681B684345084657
:100CF000F3D010469847B442F3D1384604B0BDE86B
:100D0000F081344A0192344C2B68039403228DF80D
:100D100008201B6831498B4255D10023382185F8C2
:100D2000232204F1300E85F8241285F8253285F847
:100D3000263285F8273205F50A7627460FCF774504
:100D400030607160B260F3603C4606F11006F4D189
:100D500003CC00227160C2234FF0FF0EFE273D241A
:100D60000721306085F8203285F81CE285F81D7275
:100D700085F81E4285F81F2285F8222285F8211267
:100D800005F2212305F25F2001E013F8011F9842CC
:100D90000A44FAD1D243DFF8488085F8602205F290
:100DA0001B2405F5187603E004F072F8B4420ED067
:100DB0006A6814F8011F13681B6843450846F3D09E
:100DC00010469847F2E7284601AA072198474FF0B6
:100DD000FF3093E75062000020640000410C0000E7
:100DE000190900002DE9F04FBD4C002391B0C4F863
:100DF000E434C4F8E834C4F8F034C4F8EC3404F54E
:100E0000836202E00133192B0BD052F8041F002932
:100E1000F8D1B44A04EB83017D33C1F81C249360FC
:100E2000D4600023B04A02E00133192B0AD052F8F3
:100E3000041F0029F8D103F59071AC4A44F8212031
:100E400064335360A84A002302E00133192B0AD00F
:100E500052F8041F0029F8D103F59071A44A44F810
:100E600021206433536094F8F8349D4DA14EDFF88F
:100E7000BCA20193019B002B40F0E48033680893EF
:100E8000DDF820B0D4F8003542F6F822C3EB0B03AE
:100E9000934284BF9DF8043085F8F834D4F8E434E4
:100EA00033B1D5F804359B4584BF0023C5F8E4343D
:100EB000A2693AB133680C930C9BCBEB03039A42C3
:100EC000C0F0E381606803685B69534554D103F067
:100ED000F5FE002853DBD4F8F434D4F8E4240344BA
:100EE000072AC4F8F43400F025817AB9FF2800F00D
:100EF000348133680B930B9B41F28831CBEB0303B6
:100F00008B42D5D9764B83F8F824B7E7012A00F055
:100F10002C81022A00F07E81032A00F08681042AB7
:100F200000F08D81052A00F09981062A00F09E814B
:100F3000082ABDD1704A00211A408A42C4F8E4143C
:100F4000C0F2AD81FF2AB3D1D4F8EC34002B00F00D
:100F5000FF820A2B00F0AC81062B00F0EF810B2BF7
:100F600000F0A281BC3355F823000028A0D003680C
:100F700062491B6898479BE798470028ABDA94F8CA
:100F8000F8340193002B3FF479AFD5F8FC3440F6E8
:100F9000C412C3EB0B0393427FF66CAFFF21FE2715
:100FA000574B85F81C120821002285F81D7285F820
:100FB0001E12F7270A2103F1090085F8232285F87C
:100FC000242285F8252285F8262285F8272285F80F
:100FD000282285F8292285F82A2285F81F2285F8FB
:100FE000222285F8207285F8211201E013F8011FF2
:100FF00083420A44FAD1DFF83881424FD24384F861
:101000002B2208F10F09FF2105E003F041FFC8453D
:101010000BD018F8011F626813681B68BB420846B2
:10102000F3D010469847C845F3D133680793079B20
:10103000E36094F8F8340193019BC4F8FCB4002BEE
:101040003FF41CAF304C314A314B324F3248334EB3
:101050000425257044F63E111980136803F04003FF
:10106000002443F02C031460396013601368066099
:101070002B4843F040034FF40066136001210660E3
:10108000022002F03BFE2146022002F031FE2846FB
:10109000012102F033FE2146284602F029FE0121FB
:1010A000032002F02BFE2146032002F021FE012145
:1010B0000D2002F023FE2146062002F01FFE03222F
:1010C0001849062002F060FB9FED170A022002F08B
:1010D0007DFD0A2002F06AFD11B0BDE8F08F00BF6F
:1010E000EC12FF1F3418FF1F6817FF1FB012FF1FFD
:1010F0004C18FF1F7018FF1FFF0000800813FF1F10
:101100000D15FF1F190900006C18FF1F0090034008
:101110006E18FF1F08900340DC07FF1FAD2600007C
:1011200004E100E09906000000401C4601070000B1
:101130000815FF1FD5F8F024D5F8E834A918013BAD
:1011400001320877C5F8F024C5F8E834002B7FF4A5
:10115000AFAE0823C4F8E434AAE601220BF114036D
:10116000C5F8E424C5F80435A2E6FE2872D095F847
:10117000F8240023C5F8E434002A7FF499AEFF2157
:10118000FE27654B85F81C12082185F81D7285F82D
:101190001E12F7270A2185F8232285F8242285F8D4
:1011A000252285F8262285F8272285F8282285F829
:1011B000292285F82A2285F81F2285F8222203F1A8
:1011C000090085F8207285F8211201E013F8011F4B
:1011D00098420A44FAD1DFF85881504FD24384F83C
:1011E0002B2208F10F09FF2105E003F051FEC8454D
:1011F0000BD018F8011F626813681B68BB420846D1
:10120000F3D010469847C845F3D133680A930A9B38
:10121000E3604DE600220323C5F8E804C5F8F404B2
:10122000C5F8F024C5F8E43442E6D5F8E8340422E1
:1012300003EB0020C5F8E804C5F8E42438E6384A92
:101240001A40002A26DBFF2A0CBF05230023C4F81E
:10125000E4342DE60223C5F8E43429E60623C5F874
:10126000EC04C5F8F404C5F8E43421E6D5F8EC3410
:10127000D5F8E82403EB00230721C5F8EC34C5F8C2
:10128000E414002A3FF465AF12E6264B93F8F834D5
:101290000193EFE5013A62F0FF020132D3E7013A30
:1012A00062F0FF0201324DE6002385F8F834FFE5D5
:1012B00033680D930D9BEA681B4831680F919B1AA8
:1012C000296ADFF870E0DFF870C0DDF83C80EA6979
:1012D000A0FB0307BF094FF47A7000FB17338E445D
:1012E0000CFB03EE104B1149A3FB08394FEA991987
:1012F000013A00FB19803A440CFB10E3C9EB0202EF
:10130000081F6B612A6102F0DFF833680E930E9BB1
:10131000C5F80035CCE500BF0D15FF1F1909000009
:10132000FF000080EC12FF1FD34D62100013FF1F5F
:101330000815FF1F00CA9A3B40420F00EF69D5F81D
:1013400010359F4206D9B900D5F8180504F002F807
:10135000C5F81805C4F81075002F00F0E780A24FFB
:10136000042307F2145C4FF0000E97F8222097F840
:10137000210097F82010120442EA002297F8230077
:101380000A4342EA0062C4F81425D4F81825DCF8B0
:10139000000042F82E00D4F810250EF1010E72451F
:1013A000194607F1040703F10403DED8049301F1A1
:1013B0000B0301F10808029301F10C034746481D95
:1013C00001F1060E01F1070C01F1090901F10A0210
:1013D0000393A644049B211823449EF81C0091F813
:1013E0001CE01B7FD4F81C15A44400049CF81CC00E
:1013F00040EA0E20034343EA0C638B420AD999006A
:10140000D5F824050592049303F0A4FF059A049BE4
:10141000C5F82405C4F81C35002B00F0E380DFF884
:10142000D8E1EA190021937F92F81DC0107F1B04B8
:1014300043EA0C2392F81FC0034343EA0C63CEF83F
:101440000030D4F82435DEF8000043F82100D4F849
:101450001C3501318B42384602F1040207F10407C2
:10146000E1D8C31DB84600F10509821D029300F1C1
:1014700008072244029B117FD4F82825A144A044E8
:1014800023449E4699F81C0098F81C309EF81C8056
:10149000090441EA00210B4343EA0868904507D953
:1014A0004FEA8801D5F8300503F054FFC5F8300540
:1014B000C4F82885B8F1000F34D0DFF840E10021EE
:1014C0000EF5A2688C4607F11C090023A1441A46B8
:1014D00019F8010B98400833202B42EA0002F7D19B
:1014E000381D024482420AD907F11F0323440746EC
:1014F000013793F8019003F8019BBA42F8D8A3187A
:10150000013883F81BC07044D4F83035C4F82C057A
:10151000D8F8000043F82100D4F8283501318B4277
:101520001746D0D8012384F80835C1E40C2303936F
:101530000B234FF008080293042347460A224FF07A
:1015400009094FF0070C4FF0060E0520049340E701
:101550002648A0F22A2100F8073CFE2781F81C2229
:101560004FF0080C0A4681F8243281F8253281F8C0
:10157000263281F8273281F8283281F8293281F821
:101580002A3281F81D7281F81F3281F82232A0F1CF
:10159000090EF72781F81EC20A2182F8207282F80C
:1015A0002112724601E012F8011F82420B44FAD167
:1015B0000F4F104A0192DB4384F82B32A7F10F083A
:1015C000FF2105E003F064FCB84519D018F8011FAD
:1015D0006268019813681B6883420846F2D010467F
:1015E0009847F1E7039F44E7EC12FF1F1615FF1F12
:1015F0001715FF1F190900000C18FF1F0813FF1F04
:1016000033680993099BCDF808B0D34EDDF804B0D8
:10161000E36056F8043F002B00F0C38058689A68D6
:1016200001680392D3F800A08B689847336881461D
:1016300058680368DB6898473368039A1F69632F0B
:10164000804604DD94F8F834002B00F0AA80C2F341
:10165000072384F8232284F82432504604F090F8BB
:1016600003464FEA136E020A000C514684F82532F5
:1016700084F8262284F827021A4684F828E2B7481C
:10168000039301F03DFF484604F07AF8039B0246BD
:1016900003F2292020440633002122FA01FE0831FA
:1016A000202900F801EBF8D1AD480433494618442D
:1016B00002EB030901F024FF404604F061F809F24F
:1016C00023228246224400232AFA03F10833202BE6
:1016D00002F8011BF8D1A24B09F10409414603EBC2
:1016E0000900524601F00CFF0AEB090000F1040E5C
:1016F0005FFA8EF8CEF3072C04EB000908EB0C011F
:101700000022C943022389F8243289F8232289F868
:10171000252289F82622FF234FF0FE0984F82012A3
:10172000BEF1FF3FF9B247F3072784F81E8284F821
:101730001FC284F81C3284F81D9284F8211284F8A8
:1017400022720BDB00F22627864B2F4401E013F8B0
:10175000011FBB420A44FAD1D343DBB204EB0E02B1
:101760000EF1080EBEF5007F82F8233200F34F81A0
:10177000BEF1000F15DD00F227207B4F05EB0008BE
:1017800003E003F085FB47450BD0626817F8011FA3
:1017900013681B685B450846F3D0104698474745D9
:1017A000F3D1724B9E427FF434AFDDF804B09A4619
:1017B0005AF8040F002800F0BF8090E80C00019355
:1017C0009268D0F8089090478046DAF800000268E6
:1017D000D26890470746DAF80000026852689047DE
:1017E00063280646019B04DD94F8F824002A00F0E3
:1017F000A380C3F3072284F8233284F824224846C6
:1018000003F0BEFF03464FEA136E020A000C49467E
:1018100084F8253284F8262284F827021A4684F8B0
:1018200028E24E48019301F06BFE404603F0A8FF0A
:10183000019B024603F2292020440633002122FAAC
:1018400001FE0831202900F801EBF8D144480433A7
:101850004146184402EB030801F052FE384603F0FB
:101860008FFF08F2232281462244002329FA03F144
:101870000833202B02F8011BF8D1394B08F104087A
:10188000394603EB08004A4601F03AFE09EB08002E
:10189000071D5FFA87FCC7F3072E04EB00080CEB6B
:1018A0000E010022C943022388F8243288F823223B
:1018B00088F8252288F8262284F82012F1B246F30F
:1018C0000726FF234FF0FE0884F822627E1C84F86E
:1018D0001EC284F81FE284F81C3284F81D8284F84A
:1018E00021120BDB00F226261E4B2E4401E013F8DA
:1018F000011FB3420A44FAD1D343DBB2E2190837DD
:10190000B7F5007F82F8233234DC002F14DD00F2BB
:101910002720154E2F1803E003F0BAFAB7420BD078
:10192000626816F8011F13681B685B450846F3D010
:1019300010469847B742F3D10D4B9A457FF438AF24
:10194000DDF808B0C4F8FCB40123C4F800B584F88D
:10195000F834FFF777BB00BF0417FF1F1515FF1FF3
:101960000F15FF1F0D15FF1F0715FF1F6817FF1F1E
:10197000CC17FF1F504F514E0FCF0FC60FCF0FC6C2
:101980000FCF0FC697E8030000234FF0030E382750
:10199000FF2285F823E285F824724FF0FE0E3D27E2
:1019A00085F8253285F8263285F8273286E8030047
:1019B000C22185F81C220722F01D85F81F3285F808
:1019C0002232373E85F81DE285F81E7285F8201216
:1019D00085F8212201E016F8012F86421344FAD13E
:1019E000374EDB4384F86032A6F14407FF2005E060
:1019F00003F04EFAB7429FD017F8010F62681368E0
:101A00001B685B450146F3D010469847F2E7DFF8C4
:101A1000A8E02A4FBEE80F000FC7BEE80F000FC7AF
:101A2000BEE80F000FC79EE8030000234FF0030C31
:101A30004FF0380EFF2285F823C285F824E24FF0DC
:101A4000FE0C4FF03D0E85F8253285F8263285F8DC
:101A5000273287E80300C22185F81C220722F81DDF
:101A600085F81F3285F82232373F85F81DC285F888
:101A70001EE285F8201285F8212201E017F8012FD7
:101A800087421344FAD10E4FDB4384F86032A7F14A
:101A90004408FF2006E003F0FBF9B8453FF481AEAF
:101AA00018F8010F626813681B685B450146F2D0A5
:101AB00010469847F1E700BF206400001415FF1F8F
:101AC0004C15FF1F2DE9F04FB74FB84C3B6891B054
:101AD00042F6F8220593059ED4F80035F31A934296
:101AE00084BF002384F8F834D4F8E434AF4A33B127
:101AF000D2F804359E4284BF0023C2F8E434DFF8F4
:101B0000D482AA4DA2692AB13B680993099B9B1B09
:101B10009A4225D3606803685B69434540F0DA80E8
:101B200003F0CCF80028C0F2D980D4F8F434D4F80B
:101B3000E424DFF878E20344072AC4F8F43400F020
:101B4000B680002A77D1FF2800F025813B680893F2
:101B5000089B41F288319B1B8B42D3D98EF8F82425
:101B6000934C2378002B5ED0924B1A78002A00F019
:101B7000B581914A91491768CE681B783068904AC0
:101B80000568904889689780DBB28542937140F080
:101B9000BE81632903DD96F8F824002A41D0C7F3FB
:101BA0000722FF204FF0FE0E032586F8242286F838
:101BB00025320022FC2386F81C02C8B241F307211B
:101BC00086F8203286F8221286F8237286F81DE203
:101BD00086F81E5286F81F2286F8210206F221237B
:101BE00006F2252101E013F8010F8B420244FAD1DD
:101BF000D243754D86F8262206F21B2706F22628C8
:101C000003E003F045F947450BD0726817F8011F50
:101C100013681B68AB420846F3D010469847474507
:101C2000F3D100232370694B0D20197802F060F87E
:101C300011B0BDE8F08F012A00F0D080022A00F038
:101C40002181032A00F02981042A00F03081052A2D
:101C500000F03C81062A00F04681082A7FF452AF4A
:101C60005B4A1A4000239A42C4F8E434C0F254811B
:101C7000FF2A7FF447AFD4F8EC34DFF830A1002B13
:101C800000F0B2820A2B00F05081062B00F0828116
:101C90000B2B00F04681BC3355F8230000283FF49D
:101CA00031AF03680AF11C011B6898472AE7D5F891
:101CB000F024D5F8E834A918013B01320877C5F8BB
:101CC000F024C5F8E834002B7FF41CAF0823C4F8D7
:101CD000E43417E798470028BFF627AF94F8F834A4
:101CE0003248002B3FF43CAFD0F8FC3440F6C4122D
:101CF000F31A93427FF634AFFF23FE21002280F8CF
:101D00001C3280F81D12F72308250A2180F82032A2
:101D100080F8232280F8242280F8252280F82622C9
:101D200080F8272280F8282280F8292280F82A22A9
:101D300080F81F2280F8222280F81E5280F821129B
:101D400000F2212300F22A2001E013F8011F834250
:101D50000A44FAD1DFF880801B4DD24384F82B224D
:101D600008F10F09FF2005E003F092F8C1450BD000
:101D700018F8010F626813681B68AB420146F3D084
:101D800010469847C145F3D13B680D930D9BC4F8AD
:101D9000FC64E360E4E6012206F11403C5F8E424E0
:101DA000C5F80435AEE600BF7018FF1FEC12FF1F28
:101DB000CC12FF1FE512FF1F2C18FF1F3418FF1F46
:101DC0002018FF1F410C000019090000E412FF1F3A
:101DD000FF000080010700000815FF1FFE2871D0DA
:101DE00095F8F8240023C5F8E434002A7FF48AAE7D
:101DF000FF23FE21082085F81C3285F81D12F723E9
:101E00000A2185F8203285F823220EF2212385F855
:101E1000242285F8252285F8262285F8272285F8B0
:101E2000282285F8292285F82A2285F81F2285F89C
:101E3000222285F81E0285F821120EF22A2E01E0D8
:101E400013F8011F9E450A44FAD1DFF888A3DFF892
:101E50008893D24384F82B220AF10F0BFF2101E073
:101E60001AF8011F626813681B684B45084640F06A
:101E7000118203F00DF8DA45F2D13B680793079B16
:101E8000E3603FE600220323C5F8E804C5F8F40444
:101E9000C5F8F024C5F8E43434E6D5F8E83403EBAB
:101EA00000200423C5F8E804C5F8E4342AE6C44A4F
:101EB0001A40002A26DBFF2A0CBF05230023C4F8A2
:101EC000E4341FE60223C5F8E4341BE60623C5F814
:101ED000EC04C5F8F404C5F8E43413E6B94A116813
:101EE0004942116046E6D5F8EC34D5F8E82403EB16
:101EF00000230721C5F8EC34C5F8E414002A3FF4A8
:101F0000E5AEFFE5013A62F0FF020132D3E7304669
:101F1000A8470023237086E6013A62F0FF020132EF
:101F2000A6E6002385F8F834ECE53B680A930A9BA3
:101F3000EA6839680C91A449286ADFF8A0C2DDF884
:101F400030909B1AA1FB031E4FEA9E1E4FF47A713C
:101F500084449E48EA6901FB1E3300FB03CC9A4B84
:101F6000A3FB093B4FEA9B1B013A01FB1B91724407
:101F700000FB11C3CBEB02020AF114010AF11000BD
:101F80006B612A6101F0A0FA3B680B930B9BC5F8CB
:101F90000035B7E5D5F81C90D5F81035994507D927
:101FA0004FEA8901D5F8180503F0D4F9C5F81805EA
:101FB000C4F81095B9F1000F00F0F080844A0421B4
:101FC00002F2145C4FF0000E92F8223092F8219049
:101FD00092F820001B0443EA092392F8239003435C
:101FE00043EA0963C4F81435D4F81835DCF8000066
:101FF00043F82E00D4F810350EF1010E7345084653
:1020000002F1040201F10401DED8029100F10B019A
:1020100000F1080B009100F10C01D94600F1050E0A
:1020200000F1060C00F1070A00F1090300F10A02B1
:102030000191A44402999CF81CC0A64421449EF836
:102040001C00097FA2444FEA0C4C9AF81CE04CEAB1
:10205000002C4CEA010141EA0E6AD4F81C158A45AD
:102060000BD94FEA8A01D5F824050392029303F0B5
:1020700071F9039A029BC5F82405C4F81CA5BAF1AE
:10208000000F00F08880DFF858E105EB090200211D
:10209000937F92F81DC0107F1B0443EA0C2392F833
:1020A0001FC0034343EA0C63CEF80030D4F8243554
:1020B000DEF8000043F82100D4F81C3501318B42D2
:1020C000484602F1040209F10409E1D8C11DCB46DA
:1020D000431D821D009100F1080923442244187F0A
:1020E000009B117FD4F828252344A3449E4609046D
:1020F0009BF81C309EF81CA041EA00210B4343EAE8
:102100000A6A924507D94FEA8A01D5F8300503F0EB
:1021100021F9C5F83005C4F828A5BAF1000F36D06A
:10212000DFF8C0E000220EF5A26A944609F11C0B0C
:102130000023A34419461BF8010B98400833202BB9
:1021400041EA0001F7D109F10400014488420BD2B1
:1021500009F11F032344814609F1010993F801B0F5
:1021600003F801BB8945F7D36318013883F81BC016
:102170007044D4F83035C4F82C05DAF8000043F880
:102180002200D4F82835013293428946CED8012363
:1021900084F80835B6E4DDF804909EE70B220C23A2
:1021A0004FF0080B04218DE80C00D9460A220923C0
:1021B0004FF0070A4FF0060C4FF0050E029138E77A
:1021C000FF0000802C18FF1FD34D621040420F000B
:1021D000EC12FF1F0815FF1F1909000000CA9A3BE7
:1021E0000C18FF1F0813FF1F9B460AF223219A4B6E
:1021F0000D930DA89146CDF838B0CDF83CB0FEF760
:1022000035F90146C1F30722C0B28318DB438AF8CF
:102210001E02FE258AF820320A204B1C8AF81C92E6
:102220008AF822B28AF81F228AF81D528AF82102FF
:10223000C0F2178201F222255B4655440AF22122A0
:1022400001E012F8010FAA420344FAD1DB43DBB2EA
:10225000621801F10805B5F5007F82F823327F4846
:102260001BDC002D1BDD01F223217D4D00EB01085D
:1022700000F21B2903E002F00BFEC1450FD062689B
:1022800019F8011F13681B68AB420846F3D01046CB
:102290009847F2E710469847EDE5FEF759FC3B6892
:1022A0000693704D069BE36005F1640755F8043F03
:1022B000002B00F0ED8058689A6801680092D3F80E
:1022C00000B08B6898472B68824658680368DB68C3
:1022D00098472B68009AD3F81080B8F1630F8146B5
:1022E00004DD94F8F834002B00F0D280C2F3072309
:1022F00084F8232284F82432584603F041FA034636
:102300004FEA136E020A000C594684F8253284F80D
:10231000262284F827021A4684F828E252480093BD
:1023200001F0EEF8504603F02BFA009B024603F250
:10233000292020440633002122FA01FE08312029F9
:1023400000F801EBF8D1494804335146184402EB38
:10235000030A01F0D5F8484603F012FA0AF22322E4
:102360008346224400232BFA03F10833202B02F882
:10237000011BF8D13D4B0AF1040A494603EB0A0060
:102380005A4601F0BDF80BEB0A0E0EF1040C04EBFB
:102390000E015FFA8CF9CCF307200022022309EB2F
:1023A000000B81F8243281F8232281F8252281F85C
:1023B00026226FEA0B0B5FFA88F1FF234FF0FE0A2B
:1023C00048F30728BCF1FF3F84F820B284F81E923E
:1023D00084F81F0284F81C3284F81DA284F82112AC
:1023E00084F8228211DBDFF888806FF4087908EB2B
:1023F00009030EF226201844434601E013F8011F9A
:1024000083420A44FAD1D343DBB204EB0C020CF151
:10241000080CBCF5007F82F823322DDCBCF1000FE4
:1024200036DDDFF85080DFF838A00EF2272EA8F254
:102430001B2303EB0E0903E002F02AFDC84527D059
:10244000626818F8011F13681B6853450846F3D0EB
:1024500010469847F2E700BF20620000EC12FF1F11
:10246000190900000417FF1F1515FF1F0F15FF1F87
:102470000D15FF1F0715FF1F03217B4A7B4B0D9294
:102480008DF838107A480F930DAA0721FEF7D8FB74
:10249000BD427FF40BAF57F8040F002800F0D48042
:1024A00090E828009B68D0F80890984783463868E1
:1024B0000368DB6898478246386803685B6898471A
:1024C0006328804604DD94F8F834002B00F0BC80CB
:1024D000C5F30723484684F8235284F8243203F0D6
:1024E0004FF905462B0E020A000C494684F82832A3
:1024F00084F8262284F827022A4684F825525D486B
:1025000000F0FEFF584603F03BF905F22921024690
:10251000214405F10609002322FA03F00833202B99
:1025200001F8010BF8D1544B09F1040903EB090040
:102530005946914400F0E4FF504603F021F909F2B6
:10254000232205462244002325FA03F10833202BD9
:1025500002F8011BF8D1484B09F10409514603EB7D
:1025600009002A464D4400F0CBFF05F1040E611925
:102570005FFA8EF9CEF3072C0022022309EB0C0040
:1025800081F8243281F8232281F8252281F826223D
:10259000C0435FFA88F1FF234FF0FE0A48F3072893
:1025A000BEF1FF3F84F8200284F81E9284F81FC217
:1025B00084F81C3284F81DA284F8211284F8228247
:1025C00011DBDFF8BCC06FF408780CEB080305F2F0
:1025D00026201844634601E013F8011F98420A447C
:1025E000FAD1D343DBB204EB0E020EF1080EBEF5B6
:1025F000007F82F823321BDCBEF1000F24DDDFF800
:102600008480DFF8849005F22725A8F21B231D445F
:1026100003E002F03DFC454516D0626818F8011F42
:1026200013681B684B450846F3D010469847F2E7FD
:1026300003210D4A0D4B0D928DF838100C480F9365
:102640000DAA0721FEF7FCFA0C4BBB427FF423AF27
:102650000123C4F8FC64C4F8006584F8F834FFF77B
:102660007FBA4B46F4E500BF5062000020640000D2
:10267000EC12FF1F1515FF1F0F15FF1FCC17FF1FB3
:102680000D15FF1F0715FF1F1909000008B50021D0
:10269000022001F02DFB0121042001F029FB012182
:1026A0000320BDE8084001F023BB00BFF8B572B6B7
:1026B0001C4B1B78002B31D11B4B1C4D1C491E6839
:1026C0002B680A681B4C1C481C4FDFF880E0F31A8B
:1026D0001A440A60006822680968194E01FB02F278
:1026E00040F2FE718A42A8BF0A4600FB032240F274
:1026F000FF349442A8BF1446214602203A60CEF827
:102700000040336001F0CEF80E4A29680E4B11608C
:102710000021012229601A7062B6F8BDFFF7B6FFEA
:10272000024DF1E7E412FF1F3018FF1FE812FF1FF0
:102730006818FF1FD407FF1FD807FF1F4818FF1F87
:10274000E012FF1F2C18FF1FCC12FF1F2818FF1FBD
:10275000044B02791A701B780BB9FEF7C5B9FFF765
:1027600095BF00BFE412FF1F2DE9F04F8DB0D04A96
:10277000D04B06920022044600F5836600F27C45A9
:10278000ADF81C200B92089309930A9356F8043F66
:10279000002B00F0D28058681F6801689A6808977B
:1027A0008B68ADF81C209847336809905868036817
:1027B000DB689847236831680A904FF400721B6801
:1027C000D1F810800B92BC4A9342824640F0B5810A
:1027D000B8F1630F04DD94F8F834002B00F0AD80FD
:1027E000BDF81C30DDF8209084F823321B0A84F8F1
:1027F0002432484602F0C4FF07463B0E3A0C000A5A
:10280000494684F8283284F8257284F8260284F830
:10281000272204F229203A4600F072FEDDF824B0A7
:10282000584602F0ADFF04F22329791D024606370F
:102830004944002322FA03F00833202B01F8010F4A
:10284000F8D10437594609EB0700174400F058FE49
:10285000504602F095FF09EB0702834600232BFA4E
:1028600003F10833202B02F8011BF8D1043751463D
:1028700009EB07005A4600F043FE0BEB070E0EF182
:1028800004075FFA87FAC7F3072C09EB0E010AEB7E
:102890000C000022C0434FF0020B09F80E20FF236A
:1028A0008A70CA7081F801B04FF0FE095FFA88F1B2
:1028B00084F8200248F30728781C84F81EA284F8C4
:1028C0001FC284F81C3284F81D9284F8211284F807
:1028D0002282C0F20A820EF22620204404F2212332
:1028E00001E013F8011F98420A44FAD1D243D2B250
:1028F000E11907F10803B3F5007F81F8232200F303
:102900002481002B04F5077717DD0EF10B0EDFF89D
:10291000AC91774404F21B2803E002F0B9FA474572
:102920000BD0626818F8011F13681B684B450846F6
:10293000F3D0104698474745F3D1B5427FF426AF10
:10294000DFF8749104F59C6855F8040F002800F036
:10295000E3808168036842680891ADF81C209B6899
:1029600098472B6809901A681846D36898472B68CF
:1029700021680A901A680E6852684FF40071184670
:102980000B9190474E45074640F0CF80632804DD09
:1029900094F8F834002B00F0BF80BDF81C30089E7E
:1029A00084F823321B0A84F82432304602F0E8FE11
:1029B00082464FEA1A634FEA1A42000A314684F807
:1029C000283284F825A284F8260284F8272204F20B
:1029D0002920524600F094FD09990191084602F021
:1029E000CFFE04F223260AF10502019983460AF17B
:1029F000060A324400232BFA03F00833202B02F896
:102A0000010FF8D10AF1040A5A4606EB0A0000F059
:102A100077FD0A990191084602F0B2FED34401996C
:102A2000824606EB0B0200232AFA03F00833202B20
:102A300002F8010BF8D10BF1040B06EB0B00524628
:102A400000F05EFD0AEB0B020B9BB354111D164404
:102A50005FFA81FCC1F3072E4FEA132B4FEA134AAA
:102A60000CEB0E001B0E86F801B086F802A0F37086
:102A7000C043FEB24FF0FF0B4FF0FE0A47F30727AB
:102A80004B1C84F8200284F81EC284F81FE284F8EC
:102A90001CB284F81DA284F8216284F8227218DB2B
:102AA00002F22627274404F2212300200AE000BF77
:102AB0003862000058640000410C00001909000051
:102AC00013F8016FBB423044FAD16FEA000B5FFA92
:102AD0008BFB63180831B1F5007F83F823B200F354
:102AE000A080002904F5077716DD0B32DFF820A25D
:102AF000174404F21B2603E002F0CAF9BE420BD0D1
:102B0000626816F8011F13681B6853450846F3D026
:102B100010469847BE42F3D1A8457FF415AF012374
:102B200084F8F8340DB0BDE8F08F014606AA2046BF
:102B3000B047A8457FF408AFF1E7414606AA204612
:102B40009847B5427FF422AEFAE66E49039103221C
:102B50006D49236805918DF810201B686B498B42E5
:102B600040F0CA80684F84F823220023382207F1FE
:102B7000300884F8242284F8253284F8263284F838
:102B8000273204F50A7EBC46BCE80F00C445CEF8E7
:102B90000000CEF80410CEF80820CEF80C306746BE
:102BA0000EF1100EEFD103CF0022CEF80000CEF8C8
:102BB00004103D20C2234FF0FF0CFE27072184F8AC
:102BC0001E0284F8203284F81CC284F81D7284F836
:102BD0001F2284F8222284F8211204F2212304F215
:102BE0005F2001E013F8011F98420A44FAD1D24352
:102BF000DFF81C9184F8602204F21B2704F5187892
:102C000004E002F045F947453FF497AE626817F8D3
:102C1000011F13681B684B450846F2D010469847C1
:102C2000F1E73849039103222368374905918DF86C
:102C300010201B684B455AD1002384F823223822E8
:102C40000E4601F1300C84F8242284F8253284F8F1
:102C5000263284F8273204F50A77B646BEE80F001C
:102C6000E64538607960BA60FB60764607F1100788
:102C7000F3D103CE0022386079603D20C2234FF0AB
:102C8000FF0EFE26072184F81E0284F8203284F805
:102C90001CE284F81D6284F81F2284F8222284F842
:102CA000211204F2212304F25F2001E013F8011F36
:102CB00098420A44FAD1D243DFF854A084F8602243
:102CC00004F21B2604F5187704E002F0E1F8BE4296
:102CD0003FF422AF626816F8011F13681B68534562
:102CE0000846F2D010469847F1E71A4600E603AAD4
:102CF0000721204698470FE703AA07212046984757
:102D00001BE600BF5062000020640000410C000080
:102D1000190900002DE9F04FC74E93B033680693B0
:102D2000069DD0F8003542F6F822EB1A934284BF94
:102D3000002380F8F834D0F8E434044633B1D0F8F6
:102D40000435AB423CBF0023C0F8E434BB4FDFF88E
:102D5000FCB2A26932B133680793079B5B1B9A42AE
:102D6000C0F02481606803685B69BB4266D101F0F2
:102D7000A5FF002865DBD4F8F434D4F8E424034438
:102D8000072AC4F8F43447D082B9FF2869D03368E1
:102D90000893089B41F288315B1B8B42D9D984F898
:102DA000F8246FF0010013B0BDE8F08F012A60D065
:102DB000022A00F0BF80032A00F0C780042A00F036
:102DC000CE80052A00F0DB80062A00F0E080082A89
:102DD000BFD19B4A1A4000239A42C4F8E434C0F29F
:102DE0006081FF2AB5D1D4F8EC34002B00F0948236
:102DF0000A2B00F05E82062B00F05C810B2B00F0AA
:102E00005581BC3354F823000028A2D0036804F194
:102E10001C011B6898479CE7D4F8F034E218013392
:102E2000C4F8F0341077D4F8E834013BC4F8E8343F
:102E3000002B8ED10823C4F8E4348AE79847002891
:102E400099DA94F8F8040028ADD0D4F8FC3440F6B0
:102E5000C412EB1A934200F2AE80002013B0BDE81A
:102E6000F08F012205F11403C4F8E424C4F80435FA
:102E70006FE7FE287FD094F8F8240023C4F8E434E8
:102E8000002A7FF466AF6F4923680F911B686E4973
:102E900010928B42119240F0FF80FF210820F7230F
:102EA0004FF0FE0E84F81C120A2184F81E0284F8EA
:102EB000203284F8232284F8242284F8252284F8FE
:102EC000262284F8272284F8282284F8292284F8EC
:102ED0002A2284F81F2284F8222284F81DE284F832
:102EE000211204F2212304F22A2001E013F8011F29
:102EF00098420A44FAD1D243DFF8549184F82B2245
:102F000004F21B2804F22B2A03E001F0C1FFC245A2
:102F10000BD0626818F8011F13681B684B45084600
:102F2000F3D010469847C245F3D133680993099B03
:102F3000E3600EE700220323C4F8E804C4F8F404B5
:102F4000C4F8F024C4F8E43403E7D4F8E83403EB1D
:102F500000200423C4F8E804C4F8E434F9E6384A4D
:102F60001A40002AC0F28580FF2A0CBF05230023E7
:102F7000C4F8E434EDE60223C4F8E434E9E60623B9
:102F8000C4F8EC04C4F8F404C4F8E434E1E6D4F87A
:102F9000EC34D4F8E82403EB00230721C4F8EC3424
:102FA000C4F8E414002A3FF445AFD2E66FF0010004
:102FB00013B0BDE8F08F234A23680F921B682249A3
:102FC00000228B421092119258D1FF210820F72342
:102FD000FE2784F81C120A2184F81E0284F820328D
:102FE00084F8232284F8242284F8252284F82622D7
:102FF00084F8272284F8282284F8292284F82A22B7
:1030000084F81F2284F8222284F81D7284F8211289
:1030100004F2212304F22A2001E013F8011F984250
:103020000A44FAD1D243DFF8288084F82B2204F234
:103030001B2704F22B2911E07018FF1F0107000065
:10304000FF00008020620000410C000040420F00A1
:103050001909000001F01CFFB94513D0626817F888
:10306000011F13681B6843450846F3D01046984774
:10307000F2E7013A62F0FF02013275E70FAA0A2176
:103080002046984733680B930B9BC4F8FC540020F0
:10309000E36013B0BDE8F08F0FAA0A2120469847DD
:1030A00043E7013A62F0FF0201329AE6002384F816
:1030B000F8344EE6D4F81C90D4F81035994504F154
:1030C0001C0807D94FEA8901D4F8180502F042F923
:1030D000C4F81805C4F81095B9F1000F00F0378155
:1030E00004F2145C424604214FF0000E937992F8EA
:1030F000059010791B0443EA092392F807900343D3
:1031000043EA0963C4F81435D4F81835DCF8000034
:1031100043F82E00D4F810350EF1010E7345084621
:1031200002F1040201F10401E0D8039100F10B0166
:1031300000F1090200F10803029100F10C01019273
:10314000994600F1050E00F1060C00F1070A00F1A6
:103150000A02049118F80C00039918F80EE018F808
:1031600001C018F80AA0D4F81C15000440EA0E208B
:1031700040EA0C0C4CEA0A6A8A450BD94FEA8A01EC
:10318000D4F824050592039302F0E4F8059A039B12
:10319000C4F82405C4F81CA5BAF1000F00F0D480CF
:1031A00004F5A46C08EB0903002104F20C5E9A7884
:1031B00093F801A01878120442EA0A2293F803A0B7
:1031C000024342EA0A62CEF81420D4F82425DCF83F
:1031D000000042F82100D4F81C2501318A424846FB
:1031E00003F1040309F10409E1D8421DC11D4B4656
:1031F00001920291821D00F1080918F80200019A5B
:1032000018F8033018F80210029A000418F802A007
:10321000D4F8282540EA01210B4343EA0A6A924583
:1032200007D94FEA8A01D4F8300502F093F8C4F8C0
:103230003005C4F828A5BAF1000F36D000218E461B
:1032400004F22C5000231A4608EB090A1AF801CBA5
:103250000CFA03FC0833202B42EA0C02F6D109F1E8
:10326000040C624494450BD209F103034344E14644
:1032700009F1010913F801AF03F801AC9145F7D347
:1032800008EB02030CF1FF3C03F801ECC444D4F852
:103290003035C4F82CC5D0F800C043F821C0D4F8AC
:1032A000283501318B429146CCD8012384F808356A
:1032B0004FE533680C930C9BE2682E48D4F820C08D
:1032C00031680E919A1AA0FB02E02B4BDDF8388092
:1032D000E1694FF47A7E80090EFB102263440BFBF8
:1032E0000232244BA3FB083C4FEA9C1C01390844E2
:1032F0000EFB1C8321460BFB1323CCEB0002226147
:1033000004F1100041F8143F00F0DEF833680D932B
:103310000D9BC4F800351CE5226818490F911093E5
:1033200011930A21136820460FAA984733680A931D
:103330000A9BE3602046FFF717FAC4F8FC54C4F870
:1033400000554FF0FF302EE5DDF8109055E70C22C8
:1033500009210823049201910B220421029299462B
:103360000A224FF0070A4FF0060C4FF0050E0391AA
:10337000F0E600BFD34D621000CA9A3B2062000005
:10338000F0B5324B324C334A334D344F344E35481E
:103390001D60002199809971C4F80C2584F8F814F7
:1033A000C4F81015C4F81815C4F81C15C4F8241571
:1033B000C4F82815C4F8301527606660A06004F5CD
:1033C000836204F27C4342F8041F9342FBD12649F6
:1033D000002243F8042F8B42FBD1244A002102F53E
:1033E000007302F8011F9A42FBD12148002103F823
:1033F000011F98424FF00002F9D11E49A2611E4CF4
:103400000C601E4CCC601E4C4C611E4C1E4B8C60E4
:1034100001241E481E4F1F4E8C610A741E49DFF89E
:1034200084E09C6159611D4C1D49DD601A829A74CB
:10343000C3F800E09C603D60BA80BA71056082808C
:103440008271706032613160F0BD00BF2018FF1FD3
:10345000EC12FF1F6862000098620000B06200007A
:103460009C09FF1F00504600CC17FF1F0713FF1FCA
:103470000717FF1F4C18FF1FC46200008062000086
:10348000512700005C640000B012FF1FD812FF1F1C
:10349000D012FF1F3418FF1F090B000068640000E2
:1034A00074640000DC620000704700BF044A1368C7
:1034B000190644BF03F07F031360024B1B681847D3
:1034C00000900340DC07FF1F70B40D68064B0468D2
:1034D000064E6A0AA3FB0232D3091C4406FB1353AF
:1034E00004600B6070BC7047834B040000CA9A3BB9
:1034F00008B5FDF777FCFEF7E5FA01F049FDFAE7BC
:10350000844641EA000313F003036DD1403A41D3EE
:1035100051F8043B40F8043B51F8043B40F8043BAD
:1035200051F8043B40F8043B51F8043B40F8043B9D
:1035300051F8043B40F8043B51F8043B40F8043B8D
:1035400051F8043B40F8043B51F8043B40F8043B7D
:1035500051F8043B40F8043B51F8043B40F8043B6D
:1035600051F8043B40F8043B51F8043B40F8043B5D
:1035700051F8043B40F8043B51F8043B40F8043B4D
:1035800051F8043B40F8043B51F8043B40F8043B3D
:10359000403ABDD2303211D351F8043B40F8043BDD
:1035A00051F8043B40F8043B51F8043B40F8043B1D
:1035B00051F8043B40F8043B103AEDD20C3205D3ED
:1035C00051F8043B40F8043B043AF9D2043208D0E5
:1035D000D2071CBF11F8013B00F8013B01D30B8857
:1035E00003806046704700BF082A13D38B078DD035
:1035F00010F003038AD0C3F10403D21ADB071CBF07
:1036000011F8013B00F8013B80D331F8023B20F870
:10361000023B7BE7043AD9D3013A11F8013B00F8A9
:10362000013BF9D20B7803704B7843708B78837031
:103630006046704708B5104C08E0236859050DD462
:1036400023681A050FD42368DB0411D423685803B8
:10365000F3D500F015FD23685905F1D500F00EF8FB
:1036600023681A05EFD500F009F82368DB04EDD5CF
:1036700000F004F8EAE700BF3480044008B5FFF723
:10368000D9FF00BF014B10221A807047002005406F
:10369000704700BF094908B50B6830B16A46184445
:1036A000A2F50052904202D20860184608BD01F00F
:1036B00023FE0C2303604FF0FF3008BDE007FF1F1F
:1036C000704700BF10B4114B53F8302092F880427D
:1036D00034B1012379B182F880305DF8044B704732
:1036E00003EBC0035B681A6851B922F002021A604A
:1036F0005DF8044B704782F800315DF8044B704769
:1037000042F003021A605DF8044B70479C640000AD
:103710001C4A02EBC00301295B6811D004291BD0AD
:1037200052F83000002280F8802229B1022920D0EE
:10373000032922D01A6070474FF480721A607047D4
:1037400052F830004FF4A27280F880121A601A68A2
:1037500022F020021A60704752F830104FF4A27223
:10376000012081F880021A601A6842F020021A6073
:10377000704740F203121A6070474FF481721A606A
:10378000704700BF9C6400003F2848D8F8B5042A61
:1037900044D8DFE802F0484B4E0345004FF41026B2
:1037A0002B4B03EBC0030D465C68216811F4E0610C
:1037B00048D0284B284A2949C3F82C2104F140421B
:1037C0002748C3F83411A2F59221264FC3F83001DF
:1037D0007C292548C3F83871C3F83C012CD9A2F5DF
:1037E00094237C2B2AD9A2F596237C2B28D9A2F5E9
:1037F00098237C2B29D9A2F59A227C2A27D81B480A
:1038000072B6236823F4702343F08072C4F38401FA
:103810001643236040F82150266062B6F8BD704719
:103820004FF43026BCE74FF40026B9E74FF44026AA
:10383000B6E74FF42026B3E70D48E1E70D48DFE790
:103840000D48DDE7FFF764FFB3E70C48D8E7F8BDA4
:103850009C6400000002FF1FA907FF1F5107FF1F04
:103860007D07FF1F2507FF1FF906FF1F2C09FF1FFC
:10387000E407FF1F5C08FF1FBC08FF1FEC08FF1FC9
:1038800030B4054B054D064C002210211A602A6009
:103890002060196030BC704714D0034004D003404E
:1038A00000D0034038B5A0F14203012B04461FD9D4
:1038B000002975DD904B1B78012505FA03F28A4239
:1038C00002D83F2827D938BDC21E012A2BD9A0F122
:1038D0001D02012A73D90E2856D9A4F12302032A06
:1038E00057D9864A126802FB011222FA03F320E03C
:1038F000814B1B780B2B0AD90C2B1CBF0C3B19419D
:10390000422C084657D0BDE8384001F071BCC3F1E5
:103910000C039940F4E72946FFF7D4FE2946BDE899
:103920003840FFF7F5BE764A126802FB011222FA10
:1039300003F3A21E242A00F2D580DFE812F0CC00A7
:10394000C500BE00B700B000A900A2009B00940013
:10395000D300D300D3008D00D300D300D300D30015
:10396000D30086007F0078007100D300D300D3001D
:10397000D300D3006A006300D300D300D300D30088
:103980005C0055004E00470044F28412C240D2074A
:10399000A3D55C4A126802FB011222FA03F3C8E7BE
:1039A0003F2890D80021FFF78DFE20460121BDE879
:1039B0003840FFF7ADBEBDE8384001F0FBBB524ACE
:1039C000126802FB011222FA03F3B2E74F49504A90
:1039D0000B604FF45173136038BD4E494E4A0B6073
:1039E0004FF45173136038BD4C494D4A0B604FF48E
:1039F0005173136038BD4B494B4A0B604FF4517300
:103A0000136038BD49494A4A0B604FF45173136043
:103A100038BD4849484A0B604FF45173136038BDB4
:103A20004649474A0B6040F24443136038BD45495C
:103A3000454A0B6040F24443136038BD4349444A51
:103A40000B6040F24443136038BD4249424A0B6068
:103A500040F24443136038BD4049414A0B6040F294
:103A60004443136038BD3F493F4A0B6040F2444332
:103A7000136038BD3D493E4A0B6040F24443136039
:103A800038BD3C493C4A0B6040F24443136038BDAA
:103A90003A493B4A0B6040F24443136038BD394910
:103AA000394A0B6040F24443136038BD3749384A05
:103AB0000B6040F24443136038BD3649364A0B6010
:103AC0004FF45173136038BD3449354A0B604FF4DD
:103AD0005173136038BD3349334A0B6040F244439D
:103AE000136038BD3F2C3FF6EEAE7F29D4BF0021D6
:103AF0000121204657E700BF9809FF1F08800340B7
:103B00000890034008900B4008800B4048900B4001
:103B10002CB0044040900B4028B0044038900B403B
:103B200024B0044030900B4020B0044018800B407B
:103B30004CA0044010800B4048A004401880034073
:103B400008B004401080034004B0044040800340AB
:103B500018C004403880034014C0044018900B4043
:103B600004C004402880034010B00440208003407B
:103B70000CB0044028900B400CC0044020900B4037
:103B800008C004403080034010C004404880034017
:103B90001CC004401890034034900440109003402F
:103BA0003090044010900B4000C0044038B1102801
:103BB00028BF1020044AC3B2107813707047024A1D
:103BC00001231078137070479809FF1FDFED387AD2
:103BD000DFED386A384AB4EEE70AF1EE10FA47F63C
:103BE000122370B446BF1A4602240124002322FA8D
:103BF00003F107EE901AF8EEE77A27EEA67AB4EE14
:103C0000C70AF1EE10FA07DA0133072BEFD1D20918
:103C100007EE902AF8EEE77A87EE807A4FF6FF718A
:103C2000C21EF6EE007A77EE677AFCEEE77A17EEC0
:103C3000905A8D4228BF0D46012A29462AD91728B5
:103C400015D9A0F11D02012A2ED90E2826D9A0F1DE
:103C50002302032A1CD8194A194E1A4D43EAC403F9
:103C60000020106030602960136070BC7047164AF5
:103C7000C24002F0010282F00105002AE1D0134A9D
:103C8000134E1448156043EAC403356001601360A5
:103C900070BC7047104A114E114DDFE744F2841298
:103CA000C240D207D7D4D2E70E4A0F4E0F4DD5E708
:103CB000C0E1E440000080370087930300900B4090
:103CC00004900B4008900B406006F0000080034019
:103CD00004800340088003400090034004900340A8
:103CE0000890034000800B4004800B4008800B408C
:103CF0003F2801D8FFF7E6BC704700BF3F2801D836
:103D0000FFF706BD704700BF2DE9F843054672B6C0
:103D1000204F214B214A1B683C68126862B6520151
:103D200002D5322B88BF013495B3C3F5EA331C4E5C
:103D3000DFF86490DFF86480BF334FF47A72A6FB3B
:103D4000031302FB04F404EB931472B6D9F80010C9
:103D50003A68D8F800E062B6C1F5EA33BF33A6FB93
:103D600003031EF0806FC4EB93134FF47A7002D0FC
:103D7000322988BF013200FB0233B3F57A7F04D3C6
:103D8000013D05D004F57A74DFE701F001F9DCE7C5
:103D9000BDE8F8837018FF1F18E000E004ED00E0B4
:103DA00089888888F8B53E4B3E49DFF818C13E4EF9
:103DB0003E4ADFF814E13E4D3E4C3F4F4FF000606D
:103DC00018604FF0805018604FF0005018604FF0AE
:103DD000804018604FF000401860002008602823E1
:103DE0004EF6FF71CCF80010CEF8003033600EF5BF
:103DF000012E13602B60236005F500253B6004F560
:103E00000024B36207F50027936206F5012602F548
:103E100001220EF1100E05F6E87504F6E87407F5B8
:103E20007F67103220362B602360CEF800303B6075
:103E300013603360214EBB61936109223260A7F5A4
:103E4000002706F58056203F083638603160BB6099
:103E5000F36047F8042C06F5FD2607F5FE2706F269
:103E6000FC76043730603960B360FB6046F8042CA0
:103E70000836C7F8FC0F06F6FC76114831602B6057
:103E80002360026001F026F91920FFF73DFF00F0E2
:103E90005DFE40F21310BDE8F840FFF735BF00BFEC
:103EA00004E100E004800340148003401C800340D0
:103EB000248003402C800340348003400080034072
:103EC00000900B40088003400C800340431E032BEE
:103ED00014D872B60A4951F8230068B170B4094C7D
:103EE000058834F81320466841F82360521B24F8F3
:103EF000132062B670BC704762B6704700207047EE
:103F0000CC18FF1FD419FF1F013803280BD872B635
:103F1000074B53F8203043B100205B680130002B81
:103F2000FBD162B67047002070471846F9E700BF22
:103F30002019FF1F30B472B62B4A13781D0706D51F
:103F40002A4B196A002936D0996A002941D0537842
:103F50001C0706D5254B196C00293ED0996C002909
:103F600039D09378190705D5204B196E002936D022
:103F7000996E89B1D3781B0707D51C4BD3F88020E5
:103F80007AB3D3F8882011213AB162B6184B0022D7
:103F90001A7030BC00F06CBE0D21154C154D227806
:103FA00043F8315003EBC1030830013A58602270E6
:103FB00062B630BC704704220D4C0F4D217843F897
:103FC000325003EBC20308304A1E5860227062B6BA
:103FD000EFE70521E1E70921DFE70822ECE70C2202
:103FE000EAE71022E8E700BFC46600000000FF1FF8
:103FF0004919FF1FC800400088004000431E032BE2
:104000001DD81B4A400140F0100030B4104472B675
:10401000184CE25C032A1BD8DFE802F002121517E5
:1040200003220D88E25410F0080F14BFC823882320
:1040300043EA054308310360416062B630BC704713
:1040400008300222EDE70522EBE708300422E8E71A
:10405000094A52F8230038B1084A52F82300416057
:1040600042F8231062B6E9E742F82310034AF7E763
:104070000000FF1F5819FF1F2019FF1F3019FF1FD5
:104080002DE9F04FDFF818B3DFF818A387B044E04C
:10409000AE4F4FEA930807EBC809013ED9F8042058
:1040A00003F00803F6B2A2F1080003F0FF04002BAE
:1040B00040F0048157F838301B0C99B222F8081CE4
:1040C000002B00F0F280A24B22F8064C42F8044C80
:1040D00053F82620002A00F06E819E4D55F82630B8
:1040E00058609D4C45F8260034F81630194424F8E1
:1040F000161000F09DFD002800F05681974A984B5D
:1041000019F0080F00F1080018BF1346C9F80400A1
:1041100047F8383008238BF800309BF80040E4B2B1
:1041200061071BD58F4B1B78ABB18F490A7802F022
:10413000FF032AB1013BDBB20B70002B00F0EF84D0
:104140008A490A7802F0FF032AB1013BDBB20B7007
:10415000002B00F0F78004238BF8003004F00803F4
:1041600003F0FF02002B00F0D6809AF80030DBB29B
:104170001E098DD19C08DFF8D49159F8342009EB41
:10418000C401C2F38302013A49680C2A7ED8DFE8F1
:1041900002F081817D7D7D7D7D7D477D7D7D070078
:1041A0000868734D4A68734F734E286081B240F2BD
:1041B00081606A4B6A604FF0010E0022814249F82B
:1041C00034303A60C9F81020C9F8182086F800E0A9
:1041D0005E4C00F2F480B1F5D06F80F07883B1F5D9
:1041E000817F00F0628300F28782802900F0EC82F8
:1041F000822940F01E83A98801F07F01042900F282
:1042000018835E485E4C8900084422706270027810
:10421000930740F1798384F800E04FF0020ED8E272
:10422000544F3A6842B3574B534E57491888347825
:104230000D784028864645F0020828BF4FF0400E12
:10424000002C84F001043470CEEB00000CBF8824F5
:10425000C82409EBC80680B285F0010544EA0E4483
:104260007260188049F8384072440D7018B9BEF178
:10427000400F18BF00223A603D4B1A88B2F5A06F7C
:1042800004D100219A785970404B1A70404A01239A
:1042900013703FE7364A158842F22100854200F04C
:1042A000FF812E4A49F83420F0E72C4A2C4B19F0B4
:1042B000080F18BF134647F838302BE700F0D8FC3A
:1042C000344A354952F82630002B00F0B681586840
:1042D0008C5D42F8260003F10802C9F80420032C83
:1042E00005D8DFE804F0120F150204228A551A8857
:1042F00019F0080F0CBF8823C82343EA024347F88C
:10430000383007E702228A55F1E703228A55EEE7A3
:1043100005228A55EBE7E00700F11A82210600F139
:104320004982A20706D51D4A1D4913780220DBB237
:1043300013700870E30602D5194B10221A7007B0EB
:10434000BDE8F08F00F000FE05E700BF0000FF1F92
:10435000CC18FF1F7818FF1FD419FF1FC80040009A
:10436000880040005419FF1FDD18FF1F5C19FF1F54
:104370004019FF1F7418FF1FDC18FF1FC0200740E3
:104380004C19FF1F8818FF1F4819FF1F982007406E
:10439000942007402019FF1F5819FF1F882007404D
:1043A0008020074090200740AB4A47F83800137838
:1043B00001331370AEE643F82600A84D91E642F2B1
:1043C0002100814200F0358100F2AF81B1F5086F24
:1043D00000F01B82B1F5106F40F02B82226AA049D9
:1043E000A8780870120600F14583D9F828209D4965
:1043F000130600F13A83D9F830209A49150600F1E6
:104400002F83D9F838209749140600F12483D9F86E
:1044100040209449100600F11983D9F848209149A9
:10442000120600F10E83D9F850208E49130600F1D0
:104430000383D9F858208B49150600F1F882D9F882
:1044400060208849140600F12983D9F8682085493D
:10445000100600F11E83D9F870208249120600F17F
:104460001383D9F878207F49130600F10883D9F81F
:1044700080207C49150600F11C83D9F888207949F1
:10448000140600F11083D9F890207649100600F147
:10449000C882D9F898207349120600F1BC8272488C
:1044A000724A7349019073486C4D734C0497002312
:1044B00005960295804617460E461D4603943868B9
:1044C00028B1446800F0D4FB2046002CF9D1002329
:1044D0003B60029B30681A46002342F8253028B121
:1044E000446800F0C5FB2046002CF9D10022326060
:1044F000019A98F800301146002241F8042B039AE3
:104500000191023B4FF0000122F81510032B09D84E
:10451000DFE813F04B0104004B0104004FF00103EE
:1045200088F800300135042D07F1040706F1040670
:1045300008F10108C3D1514C514B2278464D049FDC
:10454000059E002129701A70130700F14F826278CE
:104550004C49DFF810810A7010074FF00001C9F8CC
:104560003010C9F8381000F12B824749A2780A7040
:104570000021C9F85010C9F858101107DFF8E4807D
:1045800000F1DC81E2784149364C0A7000211207C3
:10459000C9F87010C9F8781000F1B9813378019327
:1045A000002183F00102C9F89010C9F8981000208A
:1045B000029080468446044635490D7845F0020E47
:1045C00009EBCE030393019B002B039B5C600CBFA4
:1045D0008824C82444EA080385F0010449F83E30E1
:1045E00032700C70DFF87CE02A4BDFF8A4800028E2
:1045F00040F02681BCF1400F1BD144F0020C09EBC6
:10460000CC03029CDFF85CE05C60002A40F02E8165
:10461000020442F088029DF804304EF83C20044425
:1046200033700D702346402803D100201A4A3B60A6
:1046300010801A4A0123137028E68B5D032B00F2C9
:104640002D8101A252F823F0154100001541000010
:104650009F470000A54700004919FF1F7818FF1F5A
:104660005419FF1F0000FF1F3019FF1FCC18FF1F38
:104670002019FF1F5819FF1FD419FF1FC46600001F
:10468000C4200740C8200740CC200740D020074066
:104690004819FF1FDC18FF1F8818FF1F94200740D0
:1046A000928892B9B14A0D784878157050708D781B
:1046B000C8789570D07010680D79157186284D797D
:1046C00089795571917100F0A580A949A94E0A78A0
:1046D000307882F00105002842F002020D700CBF14
:1046E0008821C82149F8321009EBC20280F001008C
:1046F000002130705160D4E540F20232914240F026
:104700008D80A98801F07F01042900F292806A88D7
:10471000002A40F08E809848CDF804E089000844D3
:10472000017841F00201017041E742F2212081420B
:104730007BD1A988002940F0E480904B904A9148B1
:10474000AC781D681560CDF804E00A4604702EE7C9
:104750008D4B8E4886491A614FF0020E80F800E0BA
:10476000854F0A708A49196099608A4E8A4D8B4C30
:104770009A610D213970FF213170DFF840E2297014
:104780002270874D874A8EF800109F27012406F873
:10479000047C5D600470DA6007B0BDE8F08F002330
:1047A0008B55B7E401238B55B4E44FF0000388F830
:1047B0000030B7E67049784B80220D2008701A70DF
:1047C000A2077FF5B7ADAEE5774C4FF0020E227031
:1047D0006270EA88724580F0A38165490D78402AAD
:1047E000944645F0020E28BF4FF0400C04EB0C033A
:1047F00009EBCE000293012344604FEA0C48CCEB56
:10480000020001930022C824E4E6684A664C12784C
:104810002270DEE7664A0F21117056E7B1F5A06FEE
:1048200007D1012300220193C1E642F221329142D5
:10483000F7D0514A0F231370544A0123137025E512
:1048400040287FF6DAAE44F002040EEBC401029E6B
:104850004E60BAB19DF80410564A1970334640387C
:1048600088F8005040334EF83420DFE69DF80430DD
:1048700033700204029B0D7042F0C80203444EF8EC
:104880003C20D0E69DF804101970029B404A88F83D
:104890000050403840334EF83420C7E619F0080F76
:1048A0000CBF022303238B5534E4A98801F07F0158
:1048B0000429BED86A88002ABBD12F48CDF804E06D
:1048C00089000844017821F0020101706FE63A4A3C
:1048D0005468002CADD06888B5F804E003E00C32D1
:1048E0005468002CA5D013888342F8D153887345AF
:1048F000F5D1000A03280CBF94F800E0B2F808E0F4
:1049000067E7CDF804E052E64FF0020E61E700F0F1
:104910008FF9002800F0F18008301D4AC4F88400A7
:10492000C4F8802000F084F9002800F0E08008300E
:10493000204AC9F88C00C9F888202FE600F078F9E1
:10494000002800F0E6800830114AC8F86400C8F872
:10495000602000F06DF9002800F0D5800830154A7D
:10496000C9F86C00C9F868200CE600BFDC19FF1F0D
:104970004819FF1FDC18FF1FC02007407018FF1FD9
:10498000E419FF1F6C19FF1F0000FF1F9420074050
:10499000880040008820074080200740982007407A
:1049A0008C18FF1FE018FF1F4C19FF1F5419FF1F21
:1049B000DD18FF1FC8004000C86600008C200740BB
:1049C00000F036F9002800F08C8008305D4AC8F805
:1049D0004400C8F8402000F02BF900287BD00830B4
:1049E000594AC9F84C00C9F84820BEE500F020F942
:1049F00000286AD00830534AC9F82400C9F820209A
:104A000000F016F900285AD008304F4AC9F82C0097
:104A1000C9F828209BE5D1F89C00083800F028F957
:104A20003DE5D1F89400083800F022F931E5C86D71
:104A3000083800F01DF902E5486D083800F018F953
:104A4000F7E4C86C083800F013F9ECE4486C083857
:104A500000F00EF9E1E4C86B083800F009F9D6E47B
:104A6000486B083800F004F9CBE4C86A083800F055
:104A7000FFF8C0E4606A083800F0FAF8B5E4C86FDF
:104A8000083800F0F5F8F2E4486F083800F0F0F864
:104A9000E7E4C86E083800F0EBF8DCE4486E08384C
:104AA00000F0E6F8D1E4D1F88C00083800F0E0F826
:104AB000E9E4D1F88400083800F0DAF8DDE42A7877
:104AC000C9F8280001322A7041E52A78C9F8200087
:104AD00001322A7094E72A78C9F8480001322A7016
:104AE00043E52A78C8F8400001322A7073E72A7833
:104AF000C9F8880001322A7050E52A78C4F880008D
:104B000001322A700EE72A78C9F8680001322A704B
:104B100038E52A78C8F8600001322A7019E700BE2B
:104B2000BEF1400FF44628BF4FF0400C04EB0C03DD
:104B300002930123CCEB0E004FEA0C4800220193B4
:104B40003AE500BF88004000C80040002DE9F84366
:104B5000244C00F06DFB002204F1A00023461A60F3
:104B60005A60083383424FF00001F8D11E481F4AB3
:104B70000368DFF890E01E4F1E4D1F4EDFF888805F
:104B8000DFF888C0DFF8889043F48023036013685F
:104B90001A4843F040731360C4F307238EF80030C3
:104BA000C4F307433B70240EFF2302F5C9222C7087
:104BB00002F5847288F80030114D8CF800303370A3
:104BC000012389F8003070268EF864104FF4001429
:104BD000102107F82C3C2E70046011700EF1640E49
:104BE000BDE8F8830000FF1F3480044000D8004077
:104BF000B0200740B42007401020074004E100E047
:104C000035E400E09C2007408020074088200740D2
:104C10009420074000F09CB800F074B800F08AB807
:104C200000F066B900F040B90846114600F0ACB893
:104C300072B60D480268B2FA82F30B2B10DC4FF00B
:104C40000041D94022EA0102026062B6074803EB44
:104C5000C303DB00C2180021C150104651607047E9
:104C600062B60020704700BFAC09FF1F9803FF1F0A
:104C70000D4B0E4AC31AA2FB03231B090B2B0CD8A6
:104C80000B4A127852B972B60A484FF000410268D6
:104C900021FA03F31A43026062B67047064A12789B
:104CA000002AF0D0FFF746B99803FF1F398EE3388A
:104CB0004919FF1FAC09FF1F5419FF1F38B50F4DCD
:104CC000286878B143880288C118013393420C7A6E
:104CD00002D24380204638BDFFF7CAFF002320469A
:104CE0002B6038BD064B1B782BB10320FFF7EEF885
:104CF00028600028E6D14FF0FF3038BD6819FF1F4B
:104D00005419FF1F10B5094C206818B14388184486
:104D1000007A10BD064B1B782BB10320FFF7D6F8A5
:104D200020600028F2D14FF0FF3010BD6819FF1F3E
:104D30005419FF1F044B054A1B6890881BB11A8841
:104D40005B88D31A184470476819FF1FD419FF1FD6
:104D50000B4B1B789BB110B50A4C206848B1FFF78C
:104D600087FF002303202360FFF7B0F830B1FFF77F
:104D70007FFF0320FFF7AAF80028F8D110BD704785
:104D80005419FF1F6819FF1F2DE9F04FDFF8F89045
:104D900083B0012289F80020019169B3DFF8EC802B
:104DA000364F019E8346D8F80000B0B3344D448896
:104DB000C4F14001B14228BF314604EB010E00228C
:104DC0001FFA8EFE2A70761AA0F802E000F108029F
:104DD00051B1013C224459441BF8014B02F8014FE8
:104DE0008B45F9D1B0F802E0BEF13F0F0BD8254A50
:104DF00005211170002ED6D10198002389F80030CA
:104E000003B0BDE8F08F4022028001460420FFF786
:104E1000F5F80022C8F80020E9E73A782AB3184DDF
:104E20004DF2E9044FF0010A07E0013C16D02A7860
:104E3000A2B900F0ADF83A78BAB10420FFF764F8EF
:104E40000728F2D889F800A0FFF7F2FEC8F80000A2
:104E50000028ACD10C4B013C1870E8D101234FF075
:104E6000FF302B7003B0BDE8F08F00234FF0FF3010
:104E700089F8003003B0BDE8F08F00BF5419FF1F60
:104E80006419FF1F5C19FF1F5D19FF1F6019FF1FC9
:104E900000B583B002AB012103F8010D1846FFF7FE
:104EA00073FF03B05DF804FB38B50E4D0E4C286857
:104EB0000123237028B1408800232370C0F14000F3
:104EC00038BD0A4B1B7813B90020207038BD042070
:104ED000FFF71AF80728F7D8FFF7AAFE286000287E
:104EE000E9D1F1E76019FF1F5D19FF1F5419FF1F7A
:104EF000F8B5114B1B788BB1104E114D346801275A
:104F00002F7064B10F4A63880027177021462380F1
:104F10000420FFF773F8376000232B70F8BDFFF70C
:104F200087FE084B28B1014604201C70FFF766F885
:104F3000F2E71F70F0E700BF5419FF1F6019FF1F51
:104F40005D19FF1F5C19FF1F38B50E4B1B7873B935
:104F50000D4C216861B103F0FF054B880B800420E4
:104F6000FFF74CF8256038BD084B01221A7038BD98
:104F7000FFF75EFE0028F7D00146BDE83840042068
:104F8000FFF73CB85D19FF1F6019FF1F5C19FF1F79
:104F90002DE9F843314E337893B1314F3A787AB9ED
:104FA0000122D9073A7036D49A0719D400225B0738
:104FB0003A7005D52B4B1A6812B1EFF305820AB18E
:104FC000BDE8F883EFF3108172B6186818B1264C6B
:104FD0002278002A2ED00029F2D162B6BDE8F883EB
:104FE000DFF8908098F80020002ADFD0DFF8889062
:104FF000002405E0013498F80030E4B2A34212D94D
:1050000059F824502B6828461B6998470028F1D08E
:105010002B699847EEE7FFF78DFEC8B9134B1B7855
:105020001BB93378C0E73378C0E7337803F0FE0369
:105030003370B9E745691D60012323705DB1AA6132
:1050400001B962B600254577836898472570B7E7B0
:1050500000F0ECF8E2E7064B1D60F1E7B009FF1F36
:105060006D19FF1F7C19FF1F8019FF1FB309FF1F58
:105070007819FF1F9C19FF1F8419FF1F70B5EFF3EC
:10508000108272B60C4C206880B10C4E002543692A
:10509000236073B19D6102B962B645778368984712
:1050A000EFF3108272B620680028F0D102B962B620
:1050B00070BD3360EFE700BF7019FF1F7419FF1F49
:1050C000FFF7DCBF024A136801331360704700BF6B
:1050D0007018FF1F30B42948294A2A4B2A4D6024F2
:1050E000E121047011701B78284C082B30D00A2B5A
:1050F0002748284937D00C2B0CBF35225D221223BC
:105100002A60236002600B60234B24491B78244AE9
:10511000BBB101230B601360224B23491B78234A48
:10512000012B26D9042B0FD9082B1ED9102B94BF85
:10513000862387230B6013601D4B01221A7030BC3D
:1051400070470B601360E7E784230B601360F3E79D
:1051500000F58E200F490830212213232A60236096
:1051600002600B60D0E73922F7E785230B601360FC
:10517000E2E780230B601360DEE700BF00400740DA
:1051800001400740B109FF1F08B003400CB00340C5
:1051900008B00B400CB00B409E19FF1F20B003401D
:1051A00020B00B40B209FF1F24B0034024B00B40D5
:1051B0009D19FF1F0A4A0B49136843F4805313607B
:1051C0000B7843B9084BC0221A70084B80F30C00CF
:1051D00000B218807047044B80221A70F5E700BFB8
:1051E0002C8004409E19FF1F21C00C4000C00C40C1
:1051F0000A4A0B49136843F4005313600B7843B910
:10520000084BC0221A70084B80F30C0000B21880C3
:105210007047044B80221A70F5E700BF2C800440D1
:105220009E19FF1F21D00C4000D00C40704700BFDA
:1052300072B6184A184B19491160702280211A70F1
:105240001A46197013781B06FCD510B5144B84B0A0
:10525000186862B6134B144C984298BF00EB80005C
:1052600001A998BF40000A2200F020F801A92046B9
:10527000002311F8012B01333AB10A2B20F8022F39
:10528000F7D11623237004B010BD5B00DBB223708E
:1052900004B010BD040002400000024000000741BD
:1052A0000C0002407F969800400AFF1FF0B44D1E8C
:1052B0002E46002400E00134B0FBF2F302FB1300A1
:1052C000092800F130078ABF3730F8B2C0B206F8BB
:1052D000010F1846002BEED10A1953704CB110780B
:1052E00015F8016F28700133E01A834202F8016952
:1052F000F5DB0846F0BC7047014B1868704700BFEB
:10530000800EFF1F70B50F4E0F4D761BB61018BFE5
:10531000002405D0013455F8043B9847A642F9D142
:105320000A4E0B4D761B01F0FBF9B61018BF002496
:1053300006D0013455F8043B9847A642F9D170BD18
:1053400070BD00BF2C6700002C67000038670000AC
:105350002C670000024B0A460146186800F002B8AC
:10536000800EFF1F2DE9F04F174683B0002900F093
:10537000C1800E46814607F10B0500F0E5FE56F8A8
:1053800004EC162D2EF00304A6F1080840D81022D4
:105390001546AF4241D8944275DAC94B996808EB7B
:1053A00004008842416800F0D98021F001030344E1
:1053B0005B68DB077DD51EF0010F35D039464846C6
:1053C00000F0A6FB0746E0B156F8043C23F00103C9
:1053D0004344A0F108029A4200F04481221F242A8B
:1053E00000F23181132A00F204810346324611682B
:1053F00019605168596092689A603146484600F0D9
:105400009FFA484600F0A2FE384603B0BDE8F08F90
:1054100025F00705002D2A46BBDA0C230020C9F829
:10542000003003B0BDE8F08F56F8083CC3EB080A23
:10543000DAF8043023F0030C04EB0C039342BDDBD9
:105440005746DAF80C1057F8080F221F242AC160BB
:10545000886000F21781132A40F212813168CAF87D
:1054600008107168CAF80C101B2A00F22B8108364C
:105470000AF110023168116071685160B168916081
:105480003E461C46D046631B0F2B1DD8D8F804306F
:1054900003F0010323434444C8F80430636843F035
:1054A00001036360484600F051FE304603B0BDE89A
:1054B000F08F21F003012144914221DBC36882680F
:1054C0000C46D3609A60DEE7D8F8042008EB0501AB
:1054D00002F00102154343F001020B44C8F80450E6
:1054E0004A605A6842F0010208315A60484600F0AA
:1054F00027FAD7E7114603B0BDE8F04F00F008BB2C
:105500001EF0010F7FF45AAF56F8083CC3EB080AAF
:10551000DAF8043023F0030C01EB0C0E96458BDB1C
:10552000C36882685746D3609A6057F8081FDAF854
:105530000C30CB60221F242A996000F29980132A34
:1055400062D93368CAF808307368CAF80C301B2A6D
:1055500000F2A08008360AF1100356E021F0030B98
:10556000A34405F11000834559DA1EF0010F7FF4C2
:1055700025AF56F8081CC1EB080ADAF8041021F030
:10558000030CE34458453FF757AF5746DAF80C1081
:1055900057F8080F221F242AC160886000F2B480E7
:1055A000132A40F2A5803168CAF808107168CAF859
:1055B0000C101B2A00F2AF8008360AF11002316885
:1055C000116071685160B16891600AEB0501C5EB2B
:1055D0000B0242F0010299604A60DAF8043003F0ED
:1055E00001031D434846CAF8045000F0AFFD384699
:1055F0005CE733680360736843601B2A27D800F1B7
:10560000080306F10802F2E63B4632681A60726847
:105610005A60B2689A603E467446D04633E708EB5B
:105620000501C5EB0B0B4BF0010299604A6056F87F
:10563000043C03F001031D43484646F8045C00F0B7
:1056400085FD304632E7314600F01AFDD5E6B368F5
:105650008360F368C360242A28D000F1100306F1A8
:105660001002C4E650F8043C23F003031C440AE78C
:10567000314638467446D04600F002FD3E4602E709
:105680003A46F7E6314638461C46D04600F0F8FC6C
:105690003E46F8E6B368CAF81030F368CAF814302A
:1056A000242A1BD010360AF11803AEE733690361D0
:1056B0007369436106F1180200F1180397E600BF11
:1056C000840EFF1FB168CAF81010F168CAF81410F0
:1056D000242A0FD010360AF11802CBE63369CAF833
:1056E00018307369CAF81C3018360AF120038CE7A9
:1056F0003A4664E73269CAF818207269CAF81C2071
:1057000018360AF12002B5E631463846019300F01A
:10571000B7FC019B59E7B168CAF81010F168CAF8E4
:105720001410242A03D010360AF1180247E7326910
:10573000CAF818207269CAF81C2018360AF120022B
:105740003DE700BFFFFFFFFFFFFFFFFFFFFFFFFF82
:10575000FFFFFFFFFFFFFFFFFFFFFFFFFFFFFFFF59
:10576000FFFFFFFFFFFFFFFFFFFFFFFFFFFFFFFF49
:10577000FFFFFFFFFFFFFFFFFFFFFFFFFFFFFFFF39
:1057800090F800F06DE9024520F007016FF0000C81
:1057900010F0070491F820F040F049804FF0000429
:1057A0006FF00700D1E9002391F840F000F1080004
:1057B00082FA4CF2A4FA8CF283FA4CF3A2FA8CF33C
:1057C0004BBBD1E9022382FA4CF200F10800A4FAA3
:1057D0008CF283FA4CF3A2FA8CF3E3B9D1E90423F7
:1057E00082FA4CF200F10800A4FA8CF283FA4CF32E
:1057F000A2FA8CF37BB9D1E9062301F1200182FAE8
:105800004CF200F10800A4FA8CF283FA4CF3A2FAED
:105810008CF3002BC6D0002A04BF04301A4612BAFB
:10582000B2FA82F2FDE8024500EBD2007047D1E9FE
:10583000002304F00305C4F100004FEAC50514F08D
:10584000040F91F840F00CFA05F562EA05021CBF5E
:1058500063EA050362464FF00004A9E7024B13B167
:10586000024800F005B87047000000007D580000B5
:10587000002301461A46184600F07CBC38B5074D97
:10588000074C2C1BA41005D0013C55F8043D98474B
:10589000002CF9D1BDE8384000F04EBF00000000F8
:1058A00000000000F8B5234F0C46064600F04CFC03
:1058B000BB685D6825F00305291B01F6EF7121F433
:1058C0007F6121F00F01A1F58054B4F5805F07DB03
:1058D0000021304600F03CFCBB682B44984204D0C9
:1058E000304600F033FC0020F8BD6142304600F045
:1058F0002FFC01300DD0104BBA6819682D1B45F0F4
:1059000001053046091B5560196000F01FFC01209D
:10591000F8BD0021304600F01BFCBA68831A0F2B3B
:10592000DEDD064C0449246843F00103001B53608C
:105930000860D5E7840EFF1FAC19FF1F9012FF1FF0
:10594000002945D02DE9F0410D46804600F0FCFBD2
:1059500055F8047C6A4927F00103A5F10804E21810
:105960008E685068B24220F0030062D0FE0750609B
:105970000BD455F8087CE41B01F1080EA5687545A9
:105980003B446FD0E768EF60BD6015186D68ED07A8
:1059900042D543F001026260E350B3F5007F18D2B4
:1059A000DB085A1C4D6851F83270A76001209B102B
:1059B00000FA03F301EBC2001D430838E0604D60BC
:1059C00041F83240FC604046BDE8F04100F0BEBB0B
:1059D00070475A0A042A53D89A0902F139077F00FE
:1059E00002F1380501EB870051F8272044490838B7
:1059F00090424DD0516821F003018B4202D292684F
:105A00009042F7D1D068E060A2608460D4604046E4
:105A1000BDE8F04100F09ABB95683A4FBD4203449F
:105A20003FD0D068E86043F0010285606260E350D7
:105A3000B3E7FF07034407D455F8082CA41A13440E
:105A4000A068E268C26090602F4A126843F00100CB
:105A5000934260608C60B6D32C4B40461968FFF7C8
:105A600021FFB0E711184968C90744D49168D2688A
:105A7000CA60034443F0010091606060E350A2E714
:105A8000142A17D802F15C077F0002F15B05A9E731
:105A9000AA104B68012505FA02F213434B60024637
:105AA000B1E743F001024C610C61E560A560626002
:105AB000E35088E7542A06D81A0B02F16F077F00DB
:105AC00002F16E058EE7B2F5AA7F06D8DA0B02F175
:105AD00078077F0002F1770584E740F25450824254
